{
  "_format": "hh-sol-artifact-1",
  "contractName": "Sales",
  "sourceName": "contracts/Sales.sol",
  "abi": [
    {
      "anonymous": false,
      "inputs": [
        {
          "indexed": true,
          "internalType": "address",
          "name": "previousOwner",
          "type": "address"
        },
        {
          "indexed": true,
          "internalType": "address",
          "name": "newOwner",
          "type": "address"
        }
      ],
      "name": "OwnershipTransferred",
      "type": "event"
    },
    {
      "inputs": [],
      "name": "getSales",
      "outputs": [
        {
          "components": [
            {
              "internalType": "uint256",
              "name": "saleId",
              "type": "uint256"
            },
            {
              "internalType": "uint256",
              "name": "userId",
              "type": "uint256"
            },
            {
              "internalType": "string[]",
              "name": "items",
              "type": "string[]"
            },
            {
              "internalType": "uint256[]",
              "name": "prices",
              "type": "uint256[]"
            }
          ],
          "internalType": "struct Sales.SalesStruct[]",
          "name": "",
          "type": "tuple[]"
        }
      ],
      "stateMutability": "view",
      "type": "function"
    },
    {
      "inputs": [
        {
          "internalType": "uint256",
          "name": "saleId",
          "type": "uint256"
        }
      ],
      "name": "getSalesById",
      "outputs": [
        {
          "components": [
            {
              "internalType": "uint256",
              "name": "saleId",
              "type": "uint256"
            },
            {
              "internalType": "uint256",
              "name": "userId",
              "type": "uint256"
            },
            {
              "internalType": "string[]",
              "name": "items",
              "type": "string[]"
            },
            {
              "internalType": "uint256[]",
              "name": "prices",
              "type": "uint256[]"
            }
          ],
          "internalType": "struct Sales.SalesStruct",
          "name": "",
          "type": "tuple"
        }
      ],
      "stateMutability": "view",
      "type": "function"
    },
    {
      "inputs": [
        {
          "internalType": "uint256",
          "name": "userId",
          "type": "uint256"
        }
      ],
      "name": "getSalesByUserId",
      "outputs": [
        {
          "components": [
            {
              "internalType": "uint256",
              "name": "saleId",
              "type": "uint256"
            },
            {
              "internalType": "uint256",
              "name": "userId",
              "type": "uint256"
            },
            {
              "internalType": "string[]",
              "name": "items",
              "type": "string[]"
            },
            {
              "internalType": "uint256[]",
              "name": "prices",
              "type": "uint256[]"
            }
          ],
          "internalType": "struct Sales.SalesStruct[]",
          "name": "",
          "type": "tuple[]"
        }
      ],
      "stateMutability": "view",
      "type": "function"
    },
    {
      "inputs": [
        {
          "internalType": "uint256",
          "name": "userId",
          "type": "uint256"
        },
        {
          "internalType": "string[]",
          "name": "items",
          "type": "string[]"
        },
        {
          "internalType": "uint256[]",
          "name": "prices",
          "type": "uint256[]"
        }
      ],
      "name": "insertSale",
      "outputs": [
        {
          "internalType": "uint256",
          "name": "",
          "type": "uint256"
        }
      ],
      "stateMutability": "nonpayable",
      "type": "function"
    },
    {
      "inputs": [],
      "name": "owner",
      "outputs": [
        {
          "internalType": "address",
          "name": "",
          "type": "address"
        }
      ],
      "stateMutability": "view",
      "type": "function"
    },
    {
      "inputs": [],
      "name": "renounceOwnership",
      "outputs": [],
      "stateMutability": "nonpayable",
      "type": "function"
    },
    {
      "inputs": [
        {
          "internalType": "uint256",
          "name": "",
          "type": "uint256"
        }
      ],
      "name": "sales",
      "outputs": [
        {
          "internalType": "uint256",
          "name": "saleId",
          "type": "uint256"
        },
        {
          "internalType": "uint256",
          "name": "userId",
          "type": "uint256"
        }
      ],
      "stateMutability": "view",
      "type": "function"
    },
    {
      "inputs": [
        {
          "internalType": "address",
          "name": "newOwner",
          "type": "address"
        }
      ],
      "name": "transferOwnership",
      "outputs": [],
      "stateMutability": "nonpayable",
      "type": "function"
    }
  ],
  "bytecode": "0x608060405234801561001057600080fd5b5061002d61002261003260201b60201c565b61003a60201b60201c565b6100fe565b600033905090565b60008060009054906101000a900473ffffffffffffffffffffffffffffffffffffffff169050816000806101000a81548173ffffffffffffffffffffffffffffffffffffffff021916908373ffffffffffffffffffffffffffffffffffffffff1602179055508173ffffffffffffffffffffffffffffffffffffffff168173ffffffffffffffffffffffffffffffffffffffff167f8be0079c531659141344cd1fd0a4f28419497f9722a3daafe3b4186f6b6457e060405160405180910390a35050565b6117e08061010d6000396000f3fe608060405234801561001057600080fd5b50600436106100885760003560e01c8063b5f522f71161005b578063b5f522f714610103578063debdd29414610134578063f2fde38b14610164578063f8bd2a281461018057610088565b80630d83304c1461008d57806310117f2e146100ab578063715018a6146100db5780638da5cb5b146100e5575b600080fd5b6100956101b0565b6040516100a29190610fb1565b60405180910390f35b6100c560048036038101906100c09190611013565b6103d5565b6040516100d29190610fb1565b60405180910390f35b6100e3610609565b005b6100ed61061d565b6040516100fa9190611081565b60405180910390f35b61011d60048036038101906101189190611013565b610646565b60405161012b9291906110ab565b60405180910390f35b61014e60048036038101906101499190611013565b61066a565b60405161015b919061113e565b60405180910390f35b61017e6004803603810190610179919061118c565b6107dc565b005b61019a60048036038101906101959190611497565b610860565b6040516101a79190611522565b60405180910390f35b606060006101be6001610918565b67ffffffffffffffff8111156101d7576101d66111be565b5b60405190808252806020026020018201604052801561021057816020015b6101fd610a86565b8152602001906001900390816101f55790505b50905060005b6102206001610918565b8110156103cd5760006002600060018461023a919061156c565b8152602001908152602001600020905080604051806080016040529081600082015481526020016001820154815260200160028201805480602002602001604051908101604052809291908181526020016000905b8282101561033b5783829060005260206000200180546102ae906115f1565b80601f01602080910402602001604051908101604052809291908181526020018280546102da906115f1565b80156103275780601f106102fc57610100808354040283529160200191610327565b820191906000526020600020905b81548152906001019060200180831161030a57829003601f168201915b50505050508152602001906001019061028f565b5050505081526020016003820180548060200260200160405190810160405280929190818152602001828054801561039257602002820191906000526020600020905b81548152602001906001019080831161037e575b5050505050815250508383815181106103ae576103ad611623565b5b60200260200101819052505080806103c590611652565b915050610216565b508091505090565b606060006103e36001610918565b67ffffffffffffffff8111156103fc576103fb6111be565b5b60405190808252806020026020018201604052801561043557816020015b610422610a86565b81526020019060019003908161041a5790505b50905060005b6104456001610918565b8110156105ff5760006002600060018461045f919061156c565b8152602001908152602001600020905084816001015414156105eb5780604051806080016040529081600082015481526020016001820154815260200160028201805480602002602001604051908101604052809291908181526020016000905b8282101561056c5783829060005260206000200180546104df906115f1565b80601f016020809104026020016040519081016040528092919081815260200182805461050b906115f1565b80156105585780601f1061052d57610100808354040283529160200191610558565b820191906000526020600020905b81548152906001019060200180831161053b57829003601f168201915b5050505050815260200190600101906104c0565b505050508152602001600382018054806020026020016040519081016040528092919081815260200182805480156105c357602002820191906000526020600020905b8154815260200190600101908083116105af575b5050505050815250508383815181106105df576105de611623565b5b60200260200101819052505b5080806105f790611652565b91505061043b565b5080915050919050565b610611610926565b61061b60006109a4565b565b60008060009054906101000a900473ffffffffffffffffffffffffffffffffffffffff16905090565b60026020528060005260406000206000915090508060000154908060010154905082565b610672610a86565b60026000838152602001908152602001600020604051806080016040529081600082015481526020016001820154815260200160028201805480602002602001604051908101604052809291908181526020016000905b828210156107755783829060005260206000200180546106e8906115f1565b80601f0160208091040260200160405190810160405280929190818152602001828054610714906115f1565b80156107615780601f1061073657610100808354040283529160200191610761565b820191906000526020600020905b81548152906001019060200180831161074457829003601f168201915b5050505050815260200190600101906106c9565b505050508152602001600382018054806020026020016040519081016040528092919081815260200182805480156107cc57602002820191906000526020600020905b8154815260200190600101908083116107b8575b5050505050815250509050919050565b6107e4610926565b600073ffffffffffffffffffffffffffffffffffffffff168173ffffffffffffffffffffffffffffffffffffffff161415610854576040517f08c379a000000000000000000000000000000000000000000000000000000000815260040161084b9061171e565b60405180910390fd5b61085d816109a4565b50565b600061086a610926565b6108746001610a68565b60006108806001610918565b9050600060405180608001604052808381526020018781526020018681526020018581525090508060026000848152602001908152602001600020600082015181600001556020820151816001015560408201518160020190805190602001906108eb929190610aae565b506060820151816003019080519060200190610908929190610b0e565b5090505081925050509392505050565b600081600001549050919050565b61092e610a7e565b73ffffffffffffffffffffffffffffffffffffffff1661094c61061d565b73ffffffffffffffffffffffffffffffffffffffff16146109a2576040517f08c379a00000000000000000000000000000000000000000000000000000000081526004016109999061178a565b60405180910390fd5b565b60008060009054906101000a900473ffffffffffffffffffffffffffffffffffffffff169050816000806101000a81548173ffffffffffffffffffffffffffffffffffffffff021916908373ffffffffffffffffffffffffffffffffffffffff1602179055508173ffffffffffffffffffffffffffffffffffffffff168173ffffffffffffffffffffffffffffffffffffffff167f8be0079c531659141344cd1fd0a4f28419497f9722a3daafe3b4186f6b6457e060405160405180910390a35050565b6001816000016000828254019250508190555050565b600033905090565b6040518060800160405280600081526020016000815260200160608152602001606081525090565b828054828255906000526020600020908101928215610afd579160200282015b82811115610afc578251829080519060200190610aec929190610b5b565b5091602001919060010190610ace565b5b509050610b0a9190610be1565b5090565b828054828255906000526020600020908101928215610b4a579160200282015b82811115610b49578251825591602001919060010190610b2e565b5b509050610b579190610c05565b5090565b828054610b67906115f1565b90600052602060002090601f016020900481019282610b895760008555610bd0565b82601f10610ba257805160ff1916838001178555610bd0565b82800160010185558215610bd0579182015b82811115610bcf578251825591602001919060010190610bb4565b5b509050610bdd9190610c05565b5090565b5b80821115610c015760008181610bf89190610c22565b50600101610be2565b5090565b5b80821115610c1e576000816000905550600101610c06565b5090565b508054610c2e906115f1565b6000825580601f10610c405750610c5f565b601f016020900490600052602060002090810190610c5e9190610c05565b5b50565b600081519050919050565b600082825260208201905092915050565b6000819050602082019050919050565b6000819050919050565b610ca181610c8e565b82525050565b600081519050919050565b600082825260208201905092915050565b6000819050602082019050919050565b600081519050919050565b600082825260208201905092915050565b60005b83811015610d0d578082015181840152602081019050610cf2565b83811115610d1c576000848401525b50505050565b6000601f19601f8301169050919050565b6000610d3e82610cd3565b610d488185610cde565b9350610d58818560208601610cef565b610d6181610d22565b840191505092915050565b6000610d788383610d33565b905092915050565b6000602082019050919050565b6000610d9882610ca7565b610da28185610cb2565b935083602082028501610db485610cc3565b8060005b85811015610df05784840389528151610dd18582610d6c565b9450610ddc83610d80565b925060208a01995050600181019050610db8565b50829750879550505050505092915050565b600081519050919050565b600082825260208201905092915050565b6000819050602082019050919050565b6000610e3a8383610c98565b60208301905092915050565b6000602082019050919050565b6000610e5e82610e02565b610e688185610e0d565b9350610e7383610e1e565b8060005b83811015610ea4578151610e8b8882610e2e565b9750610e9683610e46565b925050600181019050610e77565b5085935050505092915050565b6000608083016000830151610ec96000860182610c98565b506020830151610edc6020860182610c98565b5060408301518482036040860152610ef48282610d8d565b91505060608301518482036060860152610f0e8282610e53565b9150508091505092915050565b6000610f278383610eb1565b905092915050565b6000602082019050919050565b6000610f4782610c62565b610f518185610c6d565b935083602082028501610f6385610c7e565b8060005b85811015610f9f5784840389528151610f808582610f1b565b9450610f8b83610f2f565b925060208a01995050600181019050610f67565b50829750879550505050505092915050565b60006020820190508181036000830152610fcb8184610f3c565b905092915050565b6000604051905090565b600080fd5b600080fd5b610ff081610c8e565b8114610ffb57600080fd5b50565b60008135905061100d81610fe7565b92915050565b60006020828403121561102957611028610fdd565b5b600061103784828501610ffe565b91505092915050565b600073ffffffffffffffffffffffffffffffffffffffff82169050919050565b600061106b82611040565b9050919050565b61107b81611060565b82525050565b60006020820190506110966000830184611072565b92915050565b6110a581610c8e565b82525050565b60006040820190506110c0600083018561109c565b6110cd602083018461109c565b9392505050565b60006080830160008301516110ec6000860182610c98565b5060208301516110ff6020860182610c98565b50604083015184820360408601526111178282610d8d565b915050606083015184820360608601526111318282610e53565b9150508091505092915050565b6000602082019050818103600083015261115881846110d4565b905092915050565b61116981611060565b811461117457600080fd5b50565b60008135905061118681611160565b92915050565b6000602082840312156111a2576111a1610fdd565b5b60006111b084828501611177565b91505092915050565b600080fd5b7f4e487b7100000000000000000000000000000000000000000000000000000000600052604160045260246000fd5b6111f682610d22565b810181811067ffffffffffffffff82111715611215576112146111be565b5b80604052505050565b6000611228610fd3565b905061123482826111ed565b919050565b600067ffffffffffffffff821115611254576112536111be565b5b602082029050602081019050919050565b600080fd5b600080fd5b600067ffffffffffffffff82111561128a576112896111be565b5b61129382610d22565b9050602081019050919050565b82818337600083830152505050565b60006112c26112bd8461126f565b61121e565b9050828152602081018484840111156112de576112dd61126a565b5b6112e98482856112a0565b509392505050565b600082601f830112611306576113056111b9565b5b81356113168482602086016112af565b91505092915050565b600061133261132d84611239565b61121e565b9050808382526020820190506020840283018581111561135557611354611265565b5b835b8181101561139c57803567ffffffffffffffff81111561137a576113796111b9565b5b80860161138789826112f1565b85526020850194505050602081019050611357565b5050509392505050565b600082601f8301126113bb576113ba6111b9565b5b81356113cb84826020860161131f565b91505092915050565b600067ffffffffffffffff8211156113ef576113ee6111be565b5b602082029050602081019050919050565b600061141361140e846113d4565b61121e565b9050808382526020820190506020840283018581111561143657611435611265565b5b835b8181101561145f578061144b8882610ffe565b845260208401935050602081019050611438565b5050509392505050565b600082601f83011261147e5761147d6111b9565b5b813561148e848260208601611400565b91505092915050565b6000806000606084860312156114b0576114af610fdd565b5b60006114be86828701610ffe565b935050602084013567ffffffffffffffff8111156114df576114de610fe2565b5b6114eb868287016113a6565b925050604084013567ffffffffffffffff81111561150c5761150b610fe2565b5b61151886828701611469565b9150509250925092565b6000602082019050611537600083018461109c565b92915050565b7f4e487b7100000000000000000000000000000000000000000000000000000000600052601160045260246000fd5b600061157782610c8e565b915061158283610c8e565b9250827fffffffffffffffffffffffffffffffffffffffffffffffffffffffffffffffff038211156115b7576115b661153d565b5b828201905092915050565b7f4e487b7100000000000000000000000000000000000000000000000000000000600052602260045260246000fd5b6000600282049050600182168061160957607f821691505b6020821081141561161d5761161c6115c2565b5b50919050565b7f4e487b7100000000000000000000000000000000000000000000000000000000600052603260045260246000fd5b600061165d82610c8e565b91507fffffffffffffffffffffffffffffffffffffffffffffffffffffffffffffffff8214156116905761168f61153d565b5b600182019050919050565b600082825260208201905092915050565b7f4f776e61626c653a206e6577206f776e657220697320746865207a65726f206160008201527f6464726573730000000000000000000000000000000000000000000000000000602082015250565b600061170860268361169b565b9150611713826116ac565b604082019050919050565b60006020820190508181036000830152611737816116fb565b9050919050565b7f4f776e61626c653a2063616c6c6572206973206e6f7420746865206f776e6572600082015250565b600061177460208361169b565b915061177f8261173e565b602082019050919050565b600060208201905081810360008301526117a381611767565b905091905056fea2646970667358221220a3500894db59836bcb1abd712eafe0537ebdbf7cbd0bd4b5942c6465110a3ff764736f6c63430008090033",
  "linkReferences": {},
  "deployedLinkReferences": {}
}