{"contracts/NFTChance.sol":{"NFTChance":{"abi":[{"inputs":[{"internalType":"address","name":"_nftFactoryAddress","type":"address"}],"stateMutability":"nonpayable","type":"constructor"},{"anonymous":false,"inputs":[{"indexed":true,"internalType":"address","name":"user","type":"address"},{"indexed":false,"internalType":"bool","name":"success","type":"bool"},{"indexed":false,"internalType":"string","name":"message","type":"string"}],"name":"Attempt","type":"event"},{"anonymous":false,"inputs":[{"indexed":true,"internalType":"address","name":"user","type":"address"},{"indexed":false,"internalType":"uint256","name":"tokenId","type":"uint256"}],"name":"NFTCreated","type":"event"},{"inputs":[],"name":"getBalance","outputs":[{"internalType":"uint256","name":"","type":"uint256"}],"stateMutability":"view","type":"function"},{"inputs":[],"name":"nftFactory","outputs":[{"internalType":"contract NFTFactory","name":"","type":"address"}],"stateMutability":"view","type":"function"},{"inputs":[],"name":"owner","outputs":[{"internalType":"address","name":"","type":"address"}],"stateMutability":"view","type":"function"},{"inputs":[],"name":"pricePerAttempt","outputs":[{"internalType":"uint256","name":"","type":"uint256"}],"stateMutability":"view","type":"function"},{"inputs":[{"internalType":"uint256","name":"_newPrice","type":"uint256"}],"name":"setPricePerAttempt","outputs":[],"stateMutability":"nonpayable","type":"function"},{"inputs":[{"internalType":"uint256","name":"_newWinChance","type":"uint256"}],"name":"setWinChance","outputs":[],"stateMutability":"nonpayable","type":"function"},{"inputs":[{"internalType":"string","name":"_imageUrl","type":"string"}],"name":"tryToBuyNFT","outputs":[],"stateMutability":"payable","type":"function"},{"inputs":[],"name":"winChance","outputs":[{"internalType":"uint256","name":"","type":"uint256"}],"stateMutability":"view","type":"function"},{"inputs":[{"internalType":"address payable","name":"_to","type":"address"}],"name":"withdrawFunds","outputs":[],"stateMutability":"nonpayable","type":"function"}],"evm":{"bytecode":{"linkReferences":{},"object":"6080604052662386f26fc1000060015560036002553480156200002157600080fd5b506040516200127a3803806200127a833981810160405281019062000047919062000139565b336000806101000a81548173ffffffffffffffffffffffffffffffffffffffff021916908373ffffffffffffffffffffffffffffffffffffffff16021790555080600360006101000a81548173ffffffffffffffffffffffffffffffffffffffff021916908373ffffffffffffffffffffffffffffffffffffffff160217905550506200016b565b600080fd5b600073ffffffffffffffffffffffffffffffffffffffff82169050919050565b60006200010182620000d4565b9050919050565b6200011381620000f4565b81146200011f57600080fd5b50565b600081519050620001338162000108565b92915050565b600060208284031215620001525762000151620000cf565b5b6000620001628482850162000122565b91505092915050565b6110ff806200017b6000396000f3fe6080604052600436106100865760003560e01c806368742da61161005957806368742da6146101265780636dbeffbe1461014f5780638da5cb5b1461017a57806391d54b64146101a5578063d63843cd146101ce57610086565b806310b6bca01461008b57806312065fe0146100a75780631bd48e4f146100d25780631e6d21ff146100fd575b600080fd5b6100a560048036038101906100a091906108b6565b6101f9565b005b3480156100b357600080fd5b506100bc61042d565b6040516100c99190610918565b60405180910390f35b3480156100de57600080fd5b506100e7610435565b6040516100f49190610918565b60405180910390f35b34801561010957600080fd5b50610124600480360381019061011f919061095f565b61043b565b005b34801561013257600080fd5b5061014d600480360381019061014891906109ea565b610516565b005b34801561015b57600080fd5b50610164610631565b6040516101719190610918565b60405180910390f35b34801561018657600080fd5b5061018f610637565b60405161019c9190610a38565b60405180910390f35b3480156101b157600080fd5b506101cc60048036038101906101c7919061095f565b61065b565b005b3480156101da57600080fd5b506101e3610736565b6040516101f09190610ab2565b60405180910390f35b60015434101561023e576040517f08c379a000000000000000000000000000000000000000000000000000000000815260040161023590610b2a565b60405180910390fd5b600060025442336001436102529190610b79565b4060405160200161026593929190610c41565b6040516020818303038152906040528051906020012060001c6102889190610cad565b9050600081036103d9576000600360009054906101000a900473ffffffffffffffffffffffffffffffffffffffff1673ffffffffffffffffffffffffffffffffffffffff1663eacabe1433856040518363ffffffff1660e01b81526004016102f1929190610d4c565b6020604051808303816000875af1158015610310573d6000803e3d6000fd5b505050506040513d601f19601f820116820180604052508101906103349190610d91565b90503373ffffffffffffffffffffffffffffffffffffffff167f09cf4b1ac29750a0c1ca0a1872e5ce11b90999e83a7d9866d1cfd00455ddab148260405161037c9190610918565b60405180910390a23373ffffffffffffffffffffffffffffffffffffffff167fedc9bda1ae469d910047452ba8483e92cf00e8eef8d333faea81a9d835c5fe4660016040516103cb9190610e25565b60405180910390a250610429565b3373ffffffffffffffffffffffffffffffffffffffff167fedc9bda1ae469d910047452ba8483e92cf00e8eef8d333faea81a9d835c5fe4660006040516104209190610e9f565b60405180910390a25b5050565b600047905090565b60015481565b60008054906101000a900473ffffffffffffffffffffffffffffffffffffffff1673ffffffffffffffffffffffffffffffffffffffff163373ffffffffffffffffffffffffffffffffffffffff16146104c9576040517f08c379a00000000000000000000000000000000000000000000000000000000081526004016104c090610f3f565b60405180910390fd5b6000811161050c576040517f08c379a000000000000000000000000000000000000000000000000000000000815260040161050390610fab565b60405180910390fd5b8060018190555050565b60008054906101000a900473ffffffffffffffffffffffffffffffffffffffff1673ffffffffffffffffffffffffffffffffffffffff163373ffffffffffffffffffffffffffffffffffffffff16146105a4576040517f08c379a000000000000000000000000000000000000000000000000000000000815260040161059b90610f3f565b60405180910390fd5b600047116105e7576040517f08c379a00000000000000000000000000000000000000000000000000000000081526004016105de90611017565b60405180910390fd5b8073ffffffffffffffffffffffffffffffffffffffff166108fc479081150290604051600060405180830381858888f1935050505015801561062d573d6000803e3d6000fd5b5050565b60025481565b60008054906101000a900473ffffffffffffffffffffffffffffffffffffffff1681565b60008054906101000a900473ffffffffffffffffffffffffffffffffffffffff1673ffffffffffffffffffffffffffffffffffffffff163373ffffffffffffffffffffffffffffffffffffffff16146106e9576040517f08c379a00000000000000000000000000000000000000000000000000000000081526004016106e090610f3f565b60405180910390fd5b6000811161072c576040517f08c379a0000000000000000000000000000000000000000000000000000000008152600401610723906110a9565b60405180910390fd5b8060028190555050565b600360009054906101000a900473ffffffffffffffffffffffffffffffffffffffff1681565b6000604051905090565b600080fd5b600080fd5b600080fd5b600080fd5b6000601f19601f8301169050919050565b7f4e487b7100000000000000000000000000000000000000000000000000000000600052604160045260246000fd5b6107c38261077a565b810181811067ffffffffffffffff821117156107e2576107e161078b565b5b80604052505050565b60006107f561075c565b905061080182826107ba565b919050565b600067ffffffffffffffff8211156108215761082061078b565b5b61082a8261077a565b9050602081019050919050565b82818337600083830152505050565b600061085961085484610806565b6107eb565b90508281526020810184848401111561087557610874610775565b5b610880848285610837565b509392505050565b600082601f83011261089d5761089c610770565b5b81356108ad848260208601610846565b91505092915050565b6000602082840312156108cc576108cb610766565b5b600082013567ffffffffffffffff8111156108ea576108e961076b565b5b6108f684828501610888565b91505092915050565b6000819050919050565b610912816108ff565b82525050565b600060208201905061092d6000830184610909565b92915050565b61093c816108ff565b811461094757600080fd5b50565b60008135905061095981610933565b92915050565b60006020828403121561097557610974610766565b5b60006109838482850161094a565b91505092915050565b600073ffffffffffffffffffffffffffffffffffffffff82169050919050565b60006109b78261098c565b9050919050565b6109c7816109ac565b81146109d257600080fd5b50565b6000813590506109e4816109be565b92915050565b600060208284031215610a00576109ff610766565b5b6000610a0e848285016109d5565b91505092915050565b6000610a228261098c565b9050919050565b610a3281610a17565b82525050565b6000602082019050610a4d6000830184610a29565b92915050565b6000819050919050565b6000610a78610a73610a6e8461098c565b610a53565b61098c565b9050919050565b6000610a8a82610a5d565b9050919050565b6000610a9c82610a7f565b9050919050565b610aac81610a91565b82525050565b6000602082019050610ac76000830184610aa3565b92915050565b600082825260208201905092915050565b7f4d6f6e746f20696e737566696369656e7465207061726120696e74656e746172600082015250565b6000610b14602083610acd565b9150610b1f82610ade565b602082019050919050565b60006020820190508181036000830152610b4381610b07565b9050919050565b7f4e487b7100000000000000000000000000000000000000000000000000000000600052601160045260246000fd5b6000610b84826108ff565b9150610b8f836108ff565b9250828203905081811115610ba757610ba6610b4a565b5b92915050565b6000819050919050565b610bc8610bc3826108ff565b610bad565b82525050565b60008160601b9050919050565b6000610be682610bce565b9050919050565b6000610bf882610bdb565b9050919050565b610c10610c0b82610a17565b610bed565b82525050565b6000819050919050565b6000819050919050565b610c3b610c3682610c16565b610c20565b82525050565b6000610c4d8286610bb7565b602082019150610c5d8285610bff565b601482019150610c6d8284610c2a565b602082019150819050949350505050565b7f4e487b7100000000000000000000000000000000000000000000000000000000600052601260045260246000fd5b6000610cb8826108ff565b9150610cc3836108ff565b925082610cd357610cd2610c7e565b5b828206905092915050565b600081519050919050565b60005b83811015610d07578082015181840152602081019050610cec565b60008484015250505050565b6000610d1e82610cde565b610d288185610acd565b9350610d38818560208601610ce9565b610d418161077a565b840191505092915050565b6000604082019050610d616000830185610a29565b8181036020830152610d738184610d13565b90509392505050565b600081519050610d8b81610933565b92915050565b600060208284031215610da757610da6610766565b5b6000610db584828501610d7c565b91505092915050565b60008115159050919050565b610dd381610dbe565b82525050565b7f46656c69636964616465732c2067616e6173746520756e204e46540000000000600082015250565b6000610e0f601b83610acd565b9150610e1a82610dd9565b602082019050919050565b6000604082019050610e3a6000830184610dca565b8181036020830152610e4b81610e02565b905092915050565b7f496e74656e74616c6f206465206e7565766f0000000000000000000000000000600082015250565b6000610e89601283610acd565b9150610e9482610e53565b602082019050919050565b6000604082019050610eb46000830184610dca565b8181036020830152610ec581610e7c565b905092915050565b7f536f6c6f20656c2070726f706965746172696f20707565646520656a6563757460008201527f617220657374612066756e63696f6e0000000000000000000000000000000000602082015250565b6000610f29602f83610acd565b9150610f3482610ecd565b604082019050919050565b60006020820190508181036000830152610f5881610f1c565b9050919050565b7f456c2070726563696f206465626520736572206d61796f722061203000000000600082015250565b6000610f95601c83610acd565b9150610fa082610f5f565b602082019050919050565b60006020820190508181036000830152610fc481610f88565b9050919050565b7f4e6f2068617920666f6e646f7320706172612072657469726172000000000000600082015250565b6000611001601a83610acd565b915061100c82610fcb565b602082019050919050565b6000602082019050818103600083015261103081610ff4565b9050919050565b7f4c612070726f626162696c69646164206465626520736572206d61796f72206160008201527f2030000000000000000000000000000000000000000000000000000000000000602082015250565b6000611093602283610acd565b915061109e82611037565b604082019050919050565b600060208201905081810360008301526110c281611086565b905091905056fea2646970667358221220e6a974e3b941e0b896a4a463211b974af599b23dabf61dcc18bdf7e4cf65909664736f6c63430008110033","opcodes":"PUSH1 0x80 PUSH1 0x40 MSTORE PUSH7 0x2386F26FC10000 PUSH1 0x1 SSTORE PUSH1 0x3 PUSH1 0x2 SSTORE CALLVALUE DUP1 ISZERO PUSH3 0x21 JUMPI PUSH1 0x0 DUP1 REVERT JUMPDEST POP PUSH1 0x40 MLOAD PUSH3 0x127A CODESIZE SUB DUP1 PUSH3 0x127A DUP4 CODECOPY DUP2 DUP2 ADD PUSH1 0x40 MSTORE DUP2 ADD SWAP1 PUSH3 0x47 SWAP2 SWAP1 PUSH3 0x139 JUMP JUMPDEST CALLER PUSH1 0x0 DUP1 PUSH2 0x100 EXP DUP2 SLOAD DUP2 PUSH20 0xFFFFFFFFFFFFFFFFFFFFFFFFFFFFFFFFFFFFFFFF MUL NOT AND SWAP1 DUP4 PUSH20 0xFFFFFFFFFFFFFFFFFFFFFFFFFFFFFFFFFFFFFFFF AND MUL OR SWAP1 SSTORE POP DUP1 PUSH1 0x3 PUSH1 0x0 PUSH2 0x100 EXP DUP2 SLOAD DUP2 PUSH20 0xFFFFFFFFFFFFFFFFFFFFFFFFFFFFFFFFFFFFFFFF MUL NOT AND SWAP1 DUP4 PUSH20 0xFFFFFFFFFFFFFFFFFFFFFFFFFFFFFFFFFFFFFFFF AND MUL OR SWAP1 SSTORE POP POP PUSH3 0x16B JUMP JUMPDEST PUSH1 0x0 DUP1 REVERT JUMPDEST PUSH1 0x0 PUSH20 0xFFFFFFFFFFFFFFFFFFFFFFFFFFFFFFFFFFFFFFFF DUP3 AND SWAP1 POP SWAP2 SWAP1 POP JUMP JUMPDEST PUSH1 0x0 PUSH3 0x101 DUP3 PUSH3 0xD4 JUMP JUMPDEST SWAP1 POP SWAP2 SWAP1 POP JUMP JUMPDEST PUSH3 0x113 DUP2 PUSH3 0xF4 JUMP JUMPDEST DUP2 EQ PUSH3 0x11F JUMPI PUSH1 0x0 DUP1 REVERT JUMPDEST POP JUMP JUMPDEST PUSH1 0x0 DUP2 MLOAD SWAP1 POP PUSH3 0x133 DUP2 PUSH3 0x108 JUMP JUMPDEST SWAP3 SWAP2 POP POP JUMP JUMPDEST PUSH1 0x0 PUSH1 0x20 DUP3 DUP5 SUB SLT ISZERO PUSH3 0x152 JUMPI PUSH3 0x151 PUSH3 0xCF JUMP JUMPDEST JUMPDEST PUSH1 0x0 PUSH3 0x162 DUP5 DUP3 DUP6 ADD PUSH3 0x122 JUMP JUMPDEST SWAP2 POP POP SWAP3 SWAP2 POP POP JUMP JUMPDEST PUSH2 0x10FF DUP1 PUSH3 0x17B PUSH1 0x0 CODECOPY PUSH1 0x0 RETURN INVALID PUSH1 0x80 PUSH1 0x40 MSTORE PUSH1 0x4 CALLDATASIZE LT PUSH2 0x86 JUMPI PUSH1 0x0 CALLDATALOAD PUSH1 0xE0 SHR DUP1 PUSH4 0x68742DA6 GT PUSH2 0x59 JUMPI DUP1 PUSH4 0x68742DA6 EQ PUSH2 0x126 JUMPI DUP1 PUSH4 0x6DBEFFBE EQ PUSH2 0x14F JUMPI DUP1 PUSH4 0x8DA5CB5B EQ PUSH2 0x17A JUMPI DUP1 PUSH4 0x91D54B64 EQ PUSH2 0x1A5 JUMPI DUP1 PUSH4 0xD63843CD EQ PUSH2 0x1CE JUMPI PUSH2 0x86 JUMP JUMPDEST DUP1 PUSH4 0x10B6BCA0 EQ PUSH2 0x8B JUMPI DUP1 PUSH4 0x12065FE0 EQ PUSH2 0xA7 JUMPI DUP1 PUSH4 0x1BD48E4F EQ PUSH2 0xD2 JUMPI DUP1 PUSH4 0x1E6D21FF EQ PUSH2 0xFD JUMPI JUMPDEST PUSH1 0x0 DUP1 REVERT JUMPDEST PUSH2 0xA5 PUSH1 0x4 DUP1 CALLDATASIZE SUB DUP2 ADD SWAP1 PUSH2 0xA0 SWAP2 SWAP1 PUSH2 0x8B6 JUMP JUMPDEST PUSH2 0x1F9 JUMP JUMPDEST STOP JUMPDEST CALLVALUE DUP1 ISZERO PUSH2 0xB3 JUMPI PUSH1 0x0 DUP1 REVERT JUMPDEST POP PUSH2 0xBC PUSH2 0x42D JUMP JUMPDEST PUSH1 0x40 MLOAD PUSH2 0xC9 SWAP2 SWAP1 PUSH2 0x918 JUMP JUMPDEST PUSH1 0x40 MLOAD DUP1 SWAP2 SUB SWAP1 RETURN JUMPDEST CALLVALUE DUP1 ISZERO PUSH2 0xDE JUMPI PUSH1 0x0 DUP1 REVERT JUMPDEST POP PUSH2 0xE7 PUSH2 0x435 JUMP JUMPDEST PUSH1 0x40 MLOAD PUSH2 0xF4 SWAP2 SWAP1 PUSH2 0x918 JUMP JUMPDEST PUSH1 0x40 MLOAD DUP1 SWAP2 SUB SWAP1 RETURN JUMPDEST CALLVALUE DUP1 ISZERO PUSH2 0x109 JUMPI PUSH1 0x0 DUP1 REVERT JUMPDEST POP PUSH2 0x124 PUSH1 0x4 DUP1 CALLDATASIZE SUB DUP2 ADD SWAP1 PUSH2 0x11F SWAP2 SWAP1 PUSH2 0x95F JUMP JUMPDEST PUSH2 0x43B JUMP JUMPDEST STOP JUMPDEST CALLVALUE DUP1 ISZERO PUSH2 0x132 JUMPI PUSH1 0x0 DUP1 REVERT JUMPDEST POP PUSH2 0x14D PUSH1 0x4 DUP1 CALLDATASIZE SUB DUP2 ADD SWAP1 PUSH2 0x148 SWAP2 SWAP1 PUSH2 0x9EA JUMP JUMPDEST PUSH2 0x516 JUMP JUMPDEST STOP JUMPDEST CALLVALUE DUP1 ISZERO PUSH2 0x15B JUMPI PUSH1 0x0 DUP1 REVERT JUMPDEST POP PUSH2 0x164 PUSH2 0x631 JUMP JUMPDEST PUSH1 0x40 MLOAD PUSH2 0x171 SWAP2 SWAP1 PUSH2 0x918 JUMP JUMPDEST PUSH1 0x40 MLOAD DUP1 SWAP2 SUB SWAP1 RETURN JUMPDEST CALLVALUE DUP1 ISZERO PUSH2 0x186 JUMPI PUSH1 0x0 DUP1 REVERT JUMPDEST POP PUSH2 0x18F PUSH2 0x637 JUMP JUMPDEST PUSH1 0x40 MLOAD PUSH2 0x19C SWAP2 SWAP1 PUSH2 0xA38 JUMP JUMPDEST PUSH1 0x40 MLOAD DUP1 SWAP2 SUB SWAP1 RETURN JUMPDEST CALLVALUE DUP1 ISZERO PUSH2 0x1B1 JUMPI PUSH1 0x0 DUP1 REVERT JUMPDEST POP PUSH2 0x1CC PUSH1 0x4 DUP1 CALLDATASIZE SUB DUP2 ADD SWAP1 PUSH2 0x1C7 SWAP2 SWAP1 PUSH2 0x95F JUMP JUMPDEST PUSH2 0x65B JUMP JUMPDEST STOP JUMPDEST CALLVALUE DUP1 ISZERO PUSH2 0x1DA JUMPI PUSH1 0x0 DUP1 REVERT JUMPDEST POP PUSH2 0x1E3 PUSH2 0x736 JUMP JUMPDEST PUSH1 0x40 MLOAD PUSH2 0x1F0 SWAP2 SWAP1 PUSH2 0xAB2 JUMP JUMPDEST PUSH1 0x40 MLOAD DUP1 SWAP2 SUB SWAP1 RETURN JUMPDEST PUSH1 0x1 SLOAD CALLVALUE LT ISZERO PUSH2 0x23E JUMPI PUSH1 0x40 MLOAD PUSH32 0x8C379A000000000000000000000000000000000000000000000000000000000 DUP2 MSTORE PUSH1 0x4 ADD PUSH2 0x235 SWAP1 PUSH2 0xB2A JUMP JUMPDEST PUSH1 0x40 MLOAD DUP1 SWAP2 SUB SWAP1 REVERT JUMPDEST PUSH1 0x0 PUSH1 0x2 SLOAD TIMESTAMP CALLER PUSH1 0x1 NUMBER PUSH2 0x252 SWAP2 SWAP1 PUSH2 0xB79 JUMP JUMPDEST BLOCKHASH PUSH1 0x40 MLOAD PUSH1 0x20 ADD PUSH2 0x265 SWAP4 SWAP3 SWAP2 SWAP1 PUSH2 0xC41 JUMP JUMPDEST PUSH1 0x40 MLOAD PUSH1 0x20 DUP2 DUP4 SUB SUB DUP2 MSTORE SWAP1 PUSH1 0x40 MSTORE DUP1 MLOAD SWAP1 PUSH1 0x20 ADD KECCAK256 PUSH1 0x0 SHR PUSH2 0x288 SWAP2 SWAP1 PUSH2 0xCAD JUMP JUMPDEST SWAP1 POP PUSH1 0x0 DUP2 SUB PUSH2 0x3D9 JUMPI PUSH1 0x0 PUSH1 0x3 PUSH1 0x0 SWAP1 SLOAD SWAP1 PUSH2 0x100 EXP SWAP1 DIV PUSH20 0xFFFFFFFFFFFFFFFFFFFFFFFFFFFFFFFFFFFFFFFF AND PUSH20 0xFFFFFFFFFFFFFFFFFFFFFFFFFFFFFFFFFFFFFFFF AND PUSH4 0xEACABE14 CALLER DUP6 PUSH1 0x40 MLOAD DUP4 PUSH4 0xFFFFFFFF AND PUSH1 0xE0 SHL DUP2 MSTORE PUSH1 0x4 ADD PUSH2 0x2F1 SWAP3 SWAP2 SWAP1 PUSH2 0xD4C JUMP JUMPDEST PUSH1 0x20 PUSH1 0x40 MLOAD DUP1 DUP4 SUB DUP2 PUSH1 0x0 DUP8 GAS CALL ISZERO DUP1 ISZERO PUSH2 0x310 JUMPI RETURNDATASIZE PUSH1 0x0 DUP1 RETURNDATACOPY RETURNDATASIZE PUSH1 0x0 REVERT JUMPDEST POP POP POP POP PUSH1 0x40 MLOAD RETURNDATASIZE PUSH1 0x1F NOT PUSH1 0x1F DUP3 ADD AND DUP3 ADD DUP1 PUSH1 0x40 MSTORE POP DUP2 ADD SWAP1 PUSH2 0x334 SWAP2 SWAP1 PUSH2 0xD91 JUMP JUMPDEST SWAP1 POP CALLER PUSH20 0xFFFFFFFFFFFFFFFFFFFFFFFFFFFFFFFFFFFFFFFF AND PUSH32 0x9CF4B1AC29750A0C1CA0A1872E5CE11B90999E83A7D9866D1CFD00455DDAB14 DUP3 PUSH1 0x40 MLOAD PUSH2 0x37C SWAP2 SWAP1 PUSH2 0x918 JUMP JUMPDEST PUSH1 0x40 MLOAD DUP1 SWAP2 SUB SWAP1 LOG2 CALLER PUSH20 0xFFFFFFFFFFFFFFFFFFFFFFFFFFFFFFFFFFFFFFFF AND PUSH32 0xEDC9BDA1AE469D910047452BA8483E92CF00E8EEF8D333FAEA81A9D835C5FE46 PUSH1 0x1 PUSH1 0x40 MLOAD PUSH2 0x3CB SWAP2 SWAP1 PUSH2 0xE25 JUMP JUMPDEST PUSH1 0x40 MLOAD DUP1 SWAP2 SUB SWAP1 LOG2 POP PUSH2 0x429 JUMP JUMPDEST CALLER PUSH20 0xFFFFFFFFFFFFFFFFFFFFFFFFFFFFFFFFFFFFFFFF AND PUSH32 0xEDC9BDA1AE469D910047452BA8483E92CF00E8EEF8D333FAEA81A9D835C5FE46 PUSH1 0x0 PUSH1 0x40 MLOAD PUSH2 0x420 SWAP2 SWAP1 PUSH2 0xE9F JUMP JUMPDEST PUSH1 0x40 MLOAD DUP1 SWAP2 SUB SWAP1 LOG2 JUMPDEST POP POP JUMP JUMPDEST PUSH1 0x0 SELFBALANCE SWAP1 POP SWAP1 JUMP JUMPDEST PUSH1 0x1 SLOAD DUP2 JUMP JUMPDEST PUSH1 0x0 DUP1 SLOAD SWAP1 PUSH2 0x100 EXP SWAP1 DIV PUSH20 0xFFFFFFFFFFFFFFFFFFFFFFFFFFFFFFFFFFFFFFFF AND PUSH20 0xFFFFFFFFFFFFFFFFFFFFFFFFFFFFFFFFFFFFFFFF AND CALLER PUSH20 0xFFFFFFFFFFFFFFFFFFFFFFFFFFFFFFFFFFFFFFFF AND EQ PUSH2 0x4C9 JUMPI PUSH1 0x40 MLOAD PUSH32 0x8C379A000000000000000000000000000000000000000000000000000000000 DUP2 MSTORE PUSH1 0x4 ADD PUSH2 0x4C0 SWAP1 PUSH2 0xF3F JUMP JUMPDEST PUSH1 0x40 MLOAD DUP1 SWAP2 SUB SWAP1 REVERT JUMPDEST PUSH1 0x0 DUP2 GT PUSH2 0x50C JUMPI PUSH1 0x40 MLOAD PUSH32 0x8C379A000000000000000000000000000000000000000000000000000000000 DUP2 MSTORE PUSH1 0x4 ADD PUSH2 0x503 SWAP1 PUSH2 0xFAB JUMP JUMPDEST PUSH1 0x40 MLOAD DUP1 SWAP2 SUB SWAP1 REVERT JUMPDEST DUP1 PUSH1 0x1 DUP2 SWAP1 SSTORE POP POP JUMP JUMPDEST PUSH1 0x0 DUP1 SLOAD SWAP1 PUSH2 0x100 EXP SWAP1 DIV PUSH20 0xFFFFFFFFFFFFFFFFFFFFFFFFFFFFFFFFFFFFFFFF AND PUSH20 0xFFFFFFFFFFFFFFFFFFFFFFFFFFFFFFFFFFFFFFFF AND CALLER PUSH20 0xFFFFFFFFFFFFFFFFFFFFFFFFFFFFFFFFFFFFFFFF AND EQ PUSH2 0x5A4 JUMPI PUSH1 0x40 MLOAD PUSH32 0x8C379A000000000000000000000000000000000000000000000000000000000 DUP2 MSTORE PUSH1 0x4 ADD PUSH2 0x59B SWAP1 PUSH2 0xF3F JUMP JUMPDEST PUSH1 0x40 MLOAD DUP1 SWAP2 SUB SWAP1 REVERT JUMPDEST PUSH1 0x0 SELFBALANCE GT PUSH2 0x5E7 JUMPI PUSH1 0x40 MLOAD PUSH32 0x8C379A000000000000000000000000000000000000000000000000000000000 DUP2 MSTORE PUSH1 0x4 ADD PUSH2 0x5DE SWAP1 PUSH2 0x1017 JUMP JUMPDEST PUSH1 0x40 MLOAD DUP1 SWAP2 SUB SWAP1 REVERT JUMPDEST DUP1 PUSH20 0xFFFFFFFFFFFFFFFFFFFFFFFFFFFFFFFFFFFFFFFF AND PUSH2 0x8FC SELFBALANCE SWAP1 DUP2 ISZERO MUL SWAP1 PUSH1 0x40 MLOAD PUSH1 0x0 PUSH1 0x40 MLOAD DUP1 DUP4 SUB DUP2 DUP6 DUP9 DUP9 CALL SWAP4 POP POP POP POP ISZERO DUP1 ISZERO PUSH2 0x62D JUMPI RETURNDATASIZE PUSH1 0x0 DUP1 RETURNDATACOPY RETURNDATASIZE PUSH1 0x0 REVERT JUMPDEST POP POP JUMP JUMPDEST PUSH1 0x2 SLOAD DUP2 JUMP JUMPDEST PUSH1 0x0 DUP1 SLOAD SWAP1 PUSH2 0x100 EXP SWAP1 DIV PUSH20 0xFFFFFFFFFFFFFFFFFFFFFFFFFFFFFFFFFFFFFFFF AND DUP2 JUMP JUMPDEST PUSH1 0x0 DUP1 SLOAD SWAP1 PUSH2 0x100 EXP SWAP1 DIV PUSH20 0xFFFFFFFFFFFFFFFFFFFFFFFFFFFFFFFFFFFFFFFF AND PUSH20 0xFFFFFFFFFFFFFFFFFFFFFFFFFFFFFFFFFFFFFFFF AND CALLER PUSH20 0xFFFFFFFFFFFFFFFFFFFFFFFFFFFFFFFFFFFFFFFF AND EQ PUSH2 0x6E9 JUMPI PUSH1 0x40 MLOAD PUSH32 0x8C379A000000000000000000000000000000000000000000000000000000000 DUP2 MSTORE PUSH1 0x4 ADD PUSH2 0x6E0 SWAP1 PUSH2 0xF3F JUMP JUMPDEST PUSH1 0x40 MLOAD DUP1 SWAP2 SUB SWAP1 REVERT JUMPDEST PUSH1 0x0 DUP2 GT PUSH2 0x72C JUMPI PUSH1 0x40 MLOAD PUSH32 0x8C379A000000000000000000000000000000000000000000000000000000000 DUP2 MSTORE PUSH1 0x4 ADD PUSH2 0x723 SWAP1 PUSH2 0x10A9 JUMP JUMPDEST PUSH1 0x40 MLOAD DUP1 SWAP2 SUB SWAP1 REVERT JUMPDEST DUP1 PUSH1 0x2 DUP2 SWAP1 SSTORE POP POP JUMP JUMPDEST PUSH1 0x3 PUSH1 0x0 SWAP1 SLOAD SWAP1 PUSH2 0x100 EXP SWAP1 DIV PUSH20 0xFFFFFFFFFFFFFFFFFFFFFFFFFFFFFFFFFFFFFFFF AND DUP2 JUMP JUMPDEST PUSH1 0x0 PUSH1 0x40 MLOAD SWAP1 POP SWAP1 JUMP JUMPDEST PUSH1 0x0 DUP1 REVERT JUMPDEST PUSH1 0x0 DUP1 REVERT JUMPDEST PUSH1 0x0 DUP1 REVERT JUMPDEST PUSH1 0x0 DUP1 REVERT JUMPDEST PUSH1 0x0 PUSH1 0x1F NOT PUSH1 0x1F DUP4 ADD AND SWAP1 POP SWAP2 SWAP1 POP JUMP JUMPDEST PUSH32 0x4E487B7100000000000000000000000000000000000000000000000000000000 PUSH1 0x0 MSTORE PUSH1 0x41 PUSH1 0x4 MSTORE PUSH1 0x24 PUSH1 0x0 REVERT JUMPDEST PUSH2 0x7C3 DUP3 PUSH2 0x77A JUMP JUMPDEST DUP2 ADD DUP2 DUP2 LT PUSH8 0xFFFFFFFFFFFFFFFF DUP3 GT OR ISZERO PUSH2 0x7E2 JUMPI PUSH2 0x7E1 PUSH2 0x78B JUMP JUMPDEST JUMPDEST DUP1 PUSH1 0x40 MSTORE POP POP POP JUMP JUMPDEST PUSH1 0x0 PUSH2 0x7F5 PUSH2 0x75C JUMP JUMPDEST SWAP1 POP PUSH2 0x801 DUP3 DUP3 PUSH2 0x7BA JUMP JUMPDEST SWAP2 SWAP1 POP JUMP JUMPDEST PUSH1 0x0 PUSH8 0xFFFFFFFFFFFFFFFF DUP3 GT ISZERO PUSH2 0x821 JUMPI PUSH2 0x820 PUSH2 0x78B JUMP JUMPDEST JUMPDEST PUSH2 0x82A DUP3 PUSH2 0x77A JUMP JUMPDEST SWAP1 POP PUSH1 0x20 DUP2 ADD SWAP1 POP SWAP2 SWAP1 POP JUMP JUMPDEST DUP3 DUP2 DUP4 CALLDATACOPY PUSH1 0x0 DUP4 DUP4 ADD MSTORE POP POP POP JUMP JUMPDEST PUSH1 0x0 PUSH2 0x859 PUSH2 0x854 DUP5 PUSH2 0x806 JUMP JUMPDEST PUSH2 0x7EB JUMP JUMPDEST SWAP1 POP DUP3 DUP2 MSTORE PUSH1 0x20 DUP2 ADD DUP5 DUP5 DUP5 ADD GT ISZERO PUSH2 0x875 JUMPI PUSH2 0x874 PUSH2 0x775 JUMP JUMPDEST JUMPDEST PUSH2 0x880 DUP5 DUP3 DUP6 PUSH2 0x837 JUMP JUMPDEST POP SWAP4 SWAP3 POP POP POP JUMP JUMPDEST PUSH1 0x0 DUP3 PUSH1 0x1F DUP4 ADD SLT PUSH2 0x89D JUMPI PUSH2 0x89C PUSH2 0x770 JUMP JUMPDEST JUMPDEST DUP2 CALLDATALOAD PUSH2 0x8AD DUP5 DUP3 PUSH1 0x20 DUP7 ADD PUSH2 0x846 JUMP JUMPDEST SWAP2 POP POP SWAP3 SWAP2 POP POP JUMP JUMPDEST PUSH1 0x0 PUSH1 0x20 DUP3 DUP5 SUB SLT ISZERO PUSH2 0x8CC JUMPI PUSH2 0x8CB PUSH2 0x766 JUMP JUMPDEST JUMPDEST PUSH1 0x0 DUP3 ADD CALLDATALOAD PUSH8 0xFFFFFFFFFFFFFFFF DUP2 GT ISZERO PUSH2 0x8EA JUMPI PUSH2 0x8E9 PUSH2 0x76B JUMP JUMPDEST JUMPDEST PUSH2 0x8F6 DUP5 DUP3 DUP6 ADD PUSH2 0x888 JUMP JUMPDEST SWAP2 POP POP SWAP3 SWAP2 POP POP JUMP JUMPDEST PUSH1 0x0 DUP2 SWAP1 POP SWAP2 SWAP1 POP JUMP JUMPDEST PUSH2 0x912 DUP2 PUSH2 0x8FF JUMP JUMPDEST DUP3 MSTORE POP POP JUMP JUMPDEST PUSH1 0x0 PUSH1 0x20 DUP3 ADD SWAP1 POP PUSH2 0x92D PUSH1 0x0 DUP4 ADD DUP5 PUSH2 0x909 JUMP JUMPDEST SWAP3 SWAP2 POP POP JUMP JUMPDEST PUSH2 0x93C DUP2 PUSH2 0x8FF JUMP JUMPDEST DUP2 EQ PUSH2 0x947 JUMPI PUSH1 0x0 DUP1 REVERT JUMPDEST POP JUMP JUMPDEST PUSH1 0x0 DUP2 CALLDATALOAD SWAP1 POP PUSH2 0x959 DUP2 PUSH2 0x933 JUMP JUMPDEST SWAP3 SWAP2 POP POP JUMP JUMPDEST PUSH1 0x0 PUSH1 0x20 DUP3 DUP5 SUB SLT ISZERO PUSH2 0x975 JUMPI PUSH2 0x974 PUSH2 0x766 JUMP JUMPDEST JUMPDEST PUSH1 0x0 PUSH2 0x983 DUP5 DUP3 DUP6 ADD PUSH2 0x94A JUMP JUMPDEST SWAP2 POP POP SWAP3 SWAP2 POP POP JUMP JUMPDEST PUSH1 0x0 PUSH20 0xFFFFFFFFFFFFFFFFFFFFFFFFFFFFFFFFFFFFFFFF DUP3 AND SWAP1 POP SWAP2 SWAP1 POP JUMP JUMPDEST PUSH1 0x0 PUSH2 0x9B7 DUP3 PUSH2 0x98C JUMP JUMPDEST SWAP1 POP SWAP2 SWAP1 POP JUMP JUMPDEST PUSH2 0x9C7 DUP2 PUSH2 0x9AC JUMP JUMPDEST DUP2 EQ PUSH2 0x9D2 JUMPI PUSH1 0x0 DUP1 REVERT JUMPDEST POP JUMP JUMPDEST PUSH1 0x0 DUP2 CALLDATALOAD SWAP1 POP PUSH2 0x9E4 DUP2 PUSH2 0x9BE JUMP JUMPDEST SWAP3 SWAP2 POP POP JUMP JUMPDEST PUSH1 0x0 PUSH1 0x20 DUP3 DUP5 SUB SLT ISZERO PUSH2 0xA00 JUMPI PUSH2 0x9FF PUSH2 0x766 JUMP JUMPDEST JUMPDEST PUSH1 0x0 PUSH2 0xA0E DUP5 DUP3 DUP6 ADD PUSH2 0x9D5 JUMP JUMPDEST SWAP2 POP POP SWAP3 SWAP2 POP POP JUMP JUMPDEST PUSH1 0x0 PUSH2 0xA22 DUP3 PUSH2 0x98C JUMP JUMPDEST SWAP1 POP SWAP2 SWAP1 POP JUMP JUMPDEST PUSH2 0xA32 DUP2 PUSH2 0xA17 JUMP JUMPDEST DUP3 MSTORE POP POP JUMP JUMPDEST PUSH1 0x0 PUSH1 0x20 DUP3 ADD SWAP1 POP PUSH2 0xA4D PUSH1 0x0 DUP4 ADD DUP5 PUSH2 0xA29 JUMP JUMPDEST SWAP3 SWAP2 POP POP JUMP JUMPDEST PUSH1 0x0 DUP2 SWAP1 POP SWAP2 SWAP1 POP JUMP JUMPDEST PUSH1 0x0 PUSH2 0xA78 PUSH2 0xA73 PUSH2 0xA6E DUP5 PUSH2 0x98C JUMP JUMPDEST PUSH2 0xA53 JUMP JUMPDEST PUSH2 0x98C JUMP JUMPDEST SWAP1 POP SWAP2 SWAP1 POP JUMP JUMPDEST PUSH1 0x0 PUSH2 0xA8A DUP3 PUSH2 0xA5D JUMP JUMPDEST SWAP1 POP SWAP2 SWAP1 POP JUMP JUMPDEST PUSH1 0x0 PUSH2 0xA9C DUP3 PUSH2 0xA7F JUMP JUMPDEST SWAP1 POP SWAP2 SWAP1 POP JUMP JUMPDEST PUSH2 0xAAC DUP2 PUSH2 0xA91 JUMP JUMPDEST DUP3 MSTORE POP POP JUMP JUMPDEST PUSH1 0x0 PUSH1 0x20 DUP3 ADD SWAP1 POP PUSH2 0xAC7 PUSH1 0x0 DUP4 ADD DUP5 PUSH2 0xAA3 JUMP JUMPDEST SWAP3 SWAP2 POP POP JUMP JUMPDEST PUSH1 0x0 DUP3 DUP3 MSTORE PUSH1 0x20 DUP3 ADD SWAP1 POP SWAP3 SWAP2 POP POP JUMP JUMPDEST PUSH32 0x4D6F6E746F20696E737566696369656E7465207061726120696E74656E746172 PUSH1 0x0 DUP3 ADD MSTORE POP JUMP JUMPDEST PUSH1 0x0 PUSH2 0xB14 PUSH1 0x20 DUP4 PUSH2 0xACD JUMP JUMPDEST SWAP2 POP PUSH2 0xB1F DUP3 PUSH2 0xADE JUMP JUMPDEST PUSH1 0x20 DUP3 ADD SWAP1 POP SWAP2 SWAP1 POP JUMP JUMPDEST PUSH1 0x0 PUSH1 0x20 DUP3 ADD SWAP1 POP DUP2 DUP2 SUB PUSH1 0x0 DUP4 ADD MSTORE PUSH2 0xB43 DUP2 PUSH2 0xB07 JUMP JUMPDEST SWAP1 POP SWAP2 SWAP1 POP JUMP JUMPDEST PUSH32 0x4E487B7100000000000000000000000000000000000000000000000000000000 PUSH1 0x0 MSTORE PUSH1 0x11 PUSH1 0x4 MSTORE PUSH1 0x24 PUSH1 0x0 REVERT JUMPDEST PUSH1 0x0 PUSH2 0xB84 DUP3 PUSH2 0x8FF JUMP JUMPDEST SWAP2 POP PUSH2 0xB8F DUP4 PUSH2 0x8FF JUMP JUMPDEST SWAP3 POP DUP3 DUP3 SUB SWAP1 POP DUP2 DUP2 GT ISZERO PUSH2 0xBA7 JUMPI PUSH2 0xBA6 PUSH2 0xB4A JUMP JUMPDEST JUMPDEST SWAP3 SWAP2 POP POP JUMP JUMPDEST PUSH1 0x0 DUP2 SWAP1 POP SWAP2 SWAP1 POP JUMP JUMPDEST PUSH2 0xBC8 PUSH2 0xBC3 DUP3 PUSH2 0x8FF JUMP JUMPDEST PUSH2 0xBAD JUMP JUMPDEST DUP3 MSTORE POP POP JUMP JUMPDEST PUSH1 0x0 DUP2 PUSH1 0x60 SHL SWAP1 POP SWAP2 SWAP1 POP JUMP JUMPDEST PUSH1 0x0 PUSH2 0xBE6 DUP3 PUSH2 0xBCE JUMP JUMPDEST SWAP1 POP SWAP2 SWAP1 POP JUMP JUMPDEST PUSH1 0x0 PUSH2 0xBF8 DUP3 PUSH2 0xBDB JUMP JUMPDEST SWAP1 POP SWAP2 SWAP1 POP JUMP JUMPDEST PUSH2 0xC10 PUSH2 0xC0B DUP3 PUSH2 0xA17 JUMP JUMPDEST PUSH2 0xBED JUMP JUMPDEST DUP3 MSTORE POP POP JUMP JUMPDEST PUSH1 0x0 DUP2 SWAP1 POP SWAP2 SWAP1 POP JUMP JUMPDEST PUSH1 0x0 DUP2 SWAP1 POP SWAP2 SWAP1 POP JUMP JUMPDEST PUSH2 0xC3B PUSH2 0xC36 DUP3 PUSH2 0xC16 JUMP JUMPDEST PUSH2 0xC20 JUMP JUMPDEST DUP3 MSTORE POP POP JUMP JUMPDEST PUSH1 0x0 PUSH2 0xC4D DUP3 DUP7 PUSH2 0xBB7 JUMP JUMPDEST PUSH1 0x20 DUP3 ADD SWAP2 POP PUSH2 0xC5D DUP3 DUP6 PUSH2 0xBFF JUMP JUMPDEST PUSH1 0x14 DUP3 ADD SWAP2 POP PUSH2 0xC6D DUP3 DUP5 PUSH2 0xC2A JUMP JUMPDEST PUSH1 0x20 DUP3 ADD SWAP2 POP DUP2 SWAP1 POP SWAP5 SWAP4 POP POP POP POP JUMP JUMPDEST PUSH32 0x4E487B7100000000000000000000000000000000000000000000000000000000 PUSH1 0x0 MSTORE PUSH1 0x12 PUSH1 0x4 MSTORE PUSH1 0x24 PUSH1 0x0 REVERT JUMPDEST PUSH1 0x0 PUSH2 0xCB8 DUP3 PUSH2 0x8FF JUMP JUMPDEST SWAP2 POP PUSH2 0xCC3 DUP4 PUSH2 0x8FF JUMP JUMPDEST SWAP3 POP DUP3 PUSH2 0xCD3 JUMPI PUSH2 0xCD2 PUSH2 0xC7E JUMP JUMPDEST JUMPDEST DUP3 DUP3 MOD SWAP1 POP SWAP3 SWAP2 POP POP JUMP JUMPDEST PUSH1 0x0 DUP2 MLOAD SWAP1 POP SWAP2 SWAP1 POP JUMP JUMPDEST PUSH1 0x0 JUMPDEST DUP4 DUP2 LT ISZERO PUSH2 0xD07 JUMPI DUP1 DUP3 ADD MLOAD DUP2 DUP5 ADD MSTORE PUSH1 0x20 DUP2 ADD SWAP1 POP PUSH2 0xCEC JUMP JUMPDEST PUSH1 0x0 DUP5 DUP5 ADD MSTORE POP POP POP POP JUMP JUMPDEST PUSH1 0x0 PUSH2 0xD1E DUP3 PUSH2 0xCDE JUMP JUMPDEST PUSH2 0xD28 DUP2 DUP6 PUSH2 0xACD JUMP JUMPDEST SWAP4 POP PUSH2 0xD38 DUP2 DUP6 PUSH1 0x20 DUP7 ADD PUSH2 0xCE9 JUMP JUMPDEST PUSH2 0xD41 DUP2 PUSH2 0x77A JUMP JUMPDEST DUP5 ADD SWAP2 POP POP SWAP3 SWAP2 POP POP JUMP JUMPDEST PUSH1 0x0 PUSH1 0x40 DUP3 ADD SWAP1 POP PUSH2 0xD61 PUSH1 0x0 DUP4 ADD DUP6 PUSH2 0xA29 JUMP JUMPDEST DUP2 DUP2 SUB PUSH1 0x20 DUP4 ADD MSTORE PUSH2 0xD73 DUP2 DUP5 PUSH2 0xD13 JUMP JUMPDEST SWAP1 POP SWAP4 SWAP3 POP POP POP JUMP JUMPDEST PUSH1 0x0 DUP2 MLOAD SWAP1 POP PUSH2 0xD8B DUP2 PUSH2 0x933 JUMP JUMPDEST SWAP3 SWAP2 POP POP JUMP JUMPDEST PUSH1 0x0 PUSH1 0x20 DUP3 DUP5 SUB SLT ISZERO PUSH2 0xDA7 JUMPI PUSH2 0xDA6 PUSH2 0x766 JUMP JUMPDEST JUMPDEST PUSH1 0x0 PUSH2 0xDB5 DUP5 DUP3 DUP6 ADD PUSH2 0xD7C JUMP JUMPDEST SWAP2 POP POP SWAP3 SWAP2 POP POP JUMP JUMPDEST PUSH1 0x0 DUP2 ISZERO ISZERO SWAP1 POP SWAP2 SWAP1 POP JUMP JUMPDEST PUSH2 0xDD3 DUP2 PUSH2 0xDBE JUMP JUMPDEST DUP3 MSTORE POP POP JUMP JUMPDEST PUSH32 0x46656C69636964616465732C2067616E6173746520756E204E46540000000000 PUSH1 0x0 DUP3 ADD MSTORE POP JUMP JUMPDEST PUSH1 0x0 PUSH2 0xE0F PUSH1 0x1B DUP4 PUSH2 0xACD JUMP JUMPDEST SWAP2 POP PUSH2 0xE1A DUP3 PUSH2 0xDD9 JUMP JUMPDEST PUSH1 0x20 DUP3 ADD SWAP1 POP SWAP2 SWAP1 POP JUMP JUMPDEST PUSH1 0x0 PUSH1 0x40 DUP3 ADD SWAP1 POP PUSH2 0xE3A PUSH1 0x0 DUP4 ADD DUP5 PUSH2 0xDCA JUMP JUMPDEST DUP2 DUP2 SUB PUSH1 0x20 DUP4 ADD MSTORE PUSH2 0xE4B DUP2 PUSH2 0xE02 JUMP JUMPDEST SWAP1 POP SWAP3 SWAP2 POP POP JUMP JUMPDEST PUSH32 0x496E74656E74616C6F206465206E7565766F0000000000000000000000000000 PUSH1 0x0 DUP3 ADD MSTORE POP JUMP JUMPDEST PUSH1 0x0 PUSH2 0xE89 PUSH1 0x12 DUP4 PUSH2 0xACD JUMP JUMPDEST SWAP2 POP PUSH2 0xE94 DUP3 PUSH2 0xE53 JUMP JUMPDEST PUSH1 0x20 DUP3 ADD SWAP1 POP SWAP2 SWAP1 POP JUMP JUMPDEST PUSH1 0x0 PUSH1 0x40 DUP3 ADD SWAP1 POP PUSH2 0xEB4 PUSH1 0x0 DUP4 ADD DUP5 PUSH2 0xDCA JUMP JUMPDEST DUP2 DUP2 SUB PUSH1 0x20 DUP4 ADD MSTORE PUSH2 0xEC5 DUP2 PUSH2 0xE7C JUMP JUMPDEST SWAP1 POP SWAP3 SWAP2 POP POP JUMP JUMPDEST PUSH32 0x536F6C6F20656C2070726F706965746172696F20707565646520656A65637574 PUSH1 0x0 DUP3 ADD MSTORE PUSH32 0x617220657374612066756E63696F6E0000000000000000000000000000000000 PUSH1 0x20 DUP3 ADD MSTORE POP JUMP JUMPDEST PUSH1 0x0 PUSH2 0xF29 PUSH1 0x2F DUP4 PUSH2 0xACD JUMP JUMPDEST SWAP2 POP PUSH2 0xF34 DUP3 PUSH2 0xECD JUMP JUMPDEST PUSH1 0x40 DUP3 ADD SWAP1 POP SWAP2 SWAP1 POP JUMP JUMPDEST PUSH1 0x0 PUSH1 0x20 DUP3 ADD SWAP1 POP DUP2 DUP2 SUB PUSH1 0x0 DUP4 ADD MSTORE PUSH2 0xF58 DUP2 PUSH2 0xF1C JUMP JUMPDEST SWAP1 POP SWAP2 SWAP1 POP JUMP JUMPDEST PUSH32 0x456C2070726563696F206465626520736572206D61796F722061203000000000 PUSH1 0x0 DUP3 ADD MSTORE POP JUMP JUMPDEST PUSH1 0x0 PUSH2 0xF95 PUSH1 0x1C DUP4 PUSH2 0xACD JUMP JUMPDEST SWAP2 POP PUSH2 0xFA0 DUP3 PUSH2 0xF5F JUMP JUMPDEST PUSH1 0x20 DUP3 ADD SWAP1 POP SWAP2 SWAP1 POP JUMP JUMPDEST PUSH1 0x0 PUSH1 0x20 DUP3 ADD SWAP1 POP DUP2 DUP2 SUB PUSH1 0x0 DUP4 ADD MSTORE PUSH2 0xFC4 DUP2 PUSH2 0xF88 JUMP JUMPDEST SWAP1 POP SWAP2 SWAP1 POP JUMP JUMPDEST PUSH32 0x4E6F2068617920666F6E646F7320706172612072657469726172000000000000 PUSH1 0x0 DUP3 ADD MSTORE POP JUMP JUMPDEST PUSH1 0x0 PUSH2 0x1001 PUSH1 0x1A DUP4 PUSH2 0xACD JUMP JUMPDEST SWAP2 POP PUSH2 0x100C DUP3 PUSH2 0xFCB JUMP JUMPDEST PUSH1 0x20 DUP3 ADD SWAP1 POP SWAP2 SWAP1 POP JUMP JUMPDEST PUSH1 0x0 PUSH1 0x20 DUP3 ADD SWAP1 POP DUP2 DUP2 SUB PUSH1 0x0 DUP4 ADD MSTORE PUSH2 0x1030 DUP2 PUSH2 0xFF4 JUMP JUMPDEST SWAP1 POP SWAP2 SWAP1 POP JUMP JUMPDEST PUSH32 0x4C612070726F626162696C69646164206465626520736572206D61796F722061 PUSH1 0x0 DUP3 ADD MSTORE PUSH32 0x2030000000000000000000000000000000000000000000000000000000000000 PUSH1 0x20 DUP3 ADD MSTORE POP JUMP JUMPDEST PUSH1 0x0 PUSH2 0x1093 PUSH1 0x22 DUP4 PUSH2 0xACD JUMP JUMPDEST SWAP2 POP PUSH2 0x109E DUP3 PUSH2 0x1037 JUMP JUMPDEST PUSH1 0x40 DUP3 ADD SWAP1 POP SWAP2 SWAP1 POP JUMP JUMPDEST PUSH1 0x0 PUSH1 0x20 DUP3 ADD SWAP1 POP DUP2 DUP2 SUB PUSH1 0x0 DUP4 ADD MSTORE PUSH2 0x10C2 DUP2 PUSH2 0x1086 JUMP JUMPDEST SWAP1 POP SWAP2 SWAP1 POP JUMP INVALID LOG2 PUSH5 0x6970667358 0x22 SLT KECCAK256 0xE6 0xA9 PUSH21 0xE3B941E0B896A4A463211B974AF599B23DABF61DCC XOR 0xBD 0xF7 0xE4 0xCF PUSH6 0x909664736F6C PUSH4 0x43000811 STOP CALLER "},"methodIdentifiers":{"getBalance()":"12065fe0","nftFactory()":"d63843cd","owner()":"8da5cb5b","pricePerAttempt()":"1bd48e4f","setPricePerAttempt(uint256)":"1e6d21ff","setWinChance(uint256)":"91d54b64","tryToBuyNFT(string)":"10b6bca0","winChance()":"6dbeffbe","withdrawFunds(address)":"68742da6"}}}}}