{
  "_format": "hh-sol-artifact-1",
  "contractName": "NFTChance",
  "sourceName": "contracts/NFTChance.sol",
  "abi": [
    {
      "inputs": [
        {
          "internalType": "address",
          "name": "_nftFactoryAddress",
          "type": "address"
        }
      ],
      "stateMutability": "nonpayable",
      "type": "constructor"
    },
    {
      "anonymous": false,
      "inputs": [
        {
          "indexed": true,
          "internalType": "address",
          "name": "user",
          "type": "address"
        },
        {
          "indexed": false,
          "internalType": "bool",
          "name": "success",
          "type": "bool"
        },
        {
          "indexed": false,
          "internalType": "string",
          "name": "message",
          "type": "string"
        }
      ],
      "name": "Attempt",
      "type": "event"
    },
    {
      "anonymous": false,
      "inputs": [
        {
          "indexed": true,
          "internalType": "address",
          "name": "user",
          "type": "address"
        },
        {
          "indexed": false,
          "internalType": "uint256",
          "name": "tokenId",
          "type": "uint256"
        }
      ],
      "name": "NFTCreated",
      "type": "event"
    },
    {
      "anonymous": false,
      "inputs": [
        {
          "indexed": true,
          "internalType": "address",
          "name": "buyer",
          "type": "address"
        },
        {
          "indexed": false,
          "internalType": "uint256",
          "name": "tokenId",
          "type": "uint256"
        },
        {
          "indexed": false,
          "internalType": "string",
          "name": "message",
          "type": "string"
        }
      ],
      "name": "NFTPurchased",
      "type": "event"
    },
    {
      "inputs": [
        {
          "internalType": "string",
          "name": "_imageUrl",
          "type": "string"
        }
      ],
      "name": "buyNFT",
      "outputs": [],
      "stateMutability": "payable",
      "type": "function"
    },
    {
      "inputs": [],
      "name": "getBalance",
      "outputs": [
        {
          "internalType": "uint256",
          "name": "",
          "type": "uint256"
        }
      ],
      "stateMutability": "view",
      "type": "function"
    },
    {
      "inputs": [],
      "name": "nftFactory",
      "outputs": [
        {
          "internalType": "contract NFTFactory",
          "name": "",
          "type": "address"
        }
      ],
      "stateMutability": "view",
      "type": "function"
    },
    {
      "inputs": [],
      "name": "owner",
      "outputs": [
        {
          "internalType": "address",
          "name": "",
          "type": "address"
        }
      ],
      "stateMutability": "view",
      "type": "function"
    },
    {
      "inputs": [],
      "name": "pricePerAttempt",
      "outputs": [
        {
          "internalType": "uint256",
          "name": "",
          "type": "uint256"
        }
      ],
      "stateMutability": "view",
      "type": "function"
    },
    {
      "inputs": [],
      "name": "pricePerNFT",
      "outputs": [
        {
          "internalType": "uint256",
          "name": "",
          "type": "uint256"
        }
      ],
      "stateMutability": "view",
      "type": "function"
    },
    {
      "inputs": [
        {
          "internalType": "uint256",
          "name": "_newPrice",
          "type": "uint256"
        }
      ],
      "name": "setPricePerAttempt",
      "outputs": [],
      "stateMutability": "nonpayable",
      "type": "function"
    },
    {
      "inputs": [
        {
          "internalType": "uint256",
          "name": "_newPrice",
          "type": "uint256"
        }
      ],
      "name": "setPricePerNFT",
      "outputs": [],
      "stateMutability": "nonpayable",
      "type": "function"
    },
    {
      "inputs": [
        {
          "internalType": "uint256",
          "name": "_newWinChance",
          "type": "uint256"
        }
      ],
      "name": "setWinChance",
      "outputs": [],
      "stateMutability": "nonpayable",
      "type": "function"
    },
    {
      "inputs": [
        {
          "internalType": "string",
          "name": "_imageUrl",
          "type": "string"
        }
      ],
      "name": "tryToBuyNFT",
      "outputs": [],
      "stateMutability": "payable",
      "type": "function"
    },
    {
      "inputs": [],
      "name": "winChance",
      "outputs": [
        {
          "internalType": "uint256",
          "name": "",
          "type": "uint256"
        }
      ],
      "stateMutability": "view",
      "type": "function"
    },
    {
      "inputs": [
        {
          "internalType": "address payable",
          "name": "_to",
          "type": "address"
        }
      ],
      "name": "withdrawFunds",
      "outputs": [],
      "stateMutability": "nonpayable",
      "type": "function"
    }
  ],
  "bytecode": "0x6080604052655af3107a4000600155655af3107a400060025560016003553480156200002a57600080fd5b506040516200163c3803806200163c833981810160405281019062000050919062000142565b336000806101000a81548173ffffffffffffffffffffffffffffffffffffffff021916908373ffffffffffffffffffffffffffffffffffffffff16021790555080600460006101000a81548173ffffffffffffffffffffffffffffffffffffffff021916908373ffffffffffffffffffffffffffffffffffffffff1602179055505062000174565b600080fd5b600073ffffffffffffffffffffffffffffffffffffffff82169050919050565b60006200010a82620000dd565b9050919050565b6200011c81620000fd565b81146200012857600080fd5b50565b6000815190506200013c8162000111565b92915050565b6000602082840312156200015b576200015a620000d8565b5b60006200016b848285016200012b565b91505092915050565b6114b880620001846000396000f3fe6080604052600436106100a75760003560e01c80636dbeffbe116100645780636dbeffbe1461019b5780638d012300146101c65780638da5cb5b146101e257806391d54b641461020d578063cc9f019414610236578063d63843cd1461025f576100a7565b80630628aa70146100ac57806310b6bca0146100d757806312065fe0146100f35780631bd48e4f1461011e5780631e6d21ff1461014957806368742da614610172575b600080fd5b3480156100b857600080fd5b506100c161028a565b6040516100ce9190610a22565b60405180910390f35b6100f160048036038101906100ec9190610b97565b610290565b005b3480156100ff57600080fd5b506101086104c4565b6040516101159190610a22565b60405180910390f35b34801561012a57600080fd5b506101336104cc565b6040516101409190610a22565b60405180910390f35b34801561015557600080fd5b50610170600480360381019061016b9190610c0c565b6104d2565b005b34801561017e57600080fd5b5061019960048036038101906101949190610c97565b6105ad565b005b3480156101a757600080fd5b506101b06106c8565b6040516101bd9190610a22565b60405180910390f35b6101e060048036038101906101db9190610b97565b6106ce565b005b3480156101ee57600080fd5b506101f7610809565b6040516102049190610ce5565b60405180910390f35b34801561021957600080fd5b50610234600480360381019061022f9190610c0c565b61082d565b005b34801561024257600080fd5b5061025d60048036038101906102589190610c0c565b610908565b005b34801561026b57600080fd5b506102746109e3565b6040516102819190610d5f565b60405180910390f35b60015481565b6002543410156102d5576040517f08c379a00000000000000000000000000000000000000000000000000000000081526004016102cc90610dd7565b60405180910390fd5b600060035442336001436102e99190610e26565b406040516020016102fc93929190610eee565b6040516020818303038152906040528051906020012060001c61031f9190610f5a565b905060008103610470576000600460009054906101000a900473ffffffffffffffffffffffffffffffffffffffff1673ffffffffffffffffffffffffffffffffffffffff1663eacabe1433856040518363ffffffff1660e01b8152600401610388929190610ff9565b6020604051808303816000875af11580156103a7573d6000803e3d6000fd5b505050506040513d601f19601f820116820180604052508101906103cb919061103e565b90503373ffffffffffffffffffffffffffffffffffffffff167f09cf4b1ac29750a0c1ca0a1872e5ce11b90999e83a7d9866d1cfd00455ddab14826040516104139190610a22565b60405180910390a23373ffffffffffffffffffffffffffffffffffffffff167fedc9bda1ae469d910047452ba8483e92cf00e8eef8d333faea81a9d835c5fe46600160405161046291906110d2565b60405180910390a2506104c0565b3373ffffffffffffffffffffffffffffffffffffffff167fedc9bda1ae469d910047452ba8483e92cf00e8eef8d333faea81a9d835c5fe4660006040516104b7919061114c565b60405180910390a25b5050565b600047905090565b60025481565b60008054906101000a900473ffffffffffffffffffffffffffffffffffffffff1673ffffffffffffffffffffffffffffffffffffffff163373ffffffffffffffffffffffffffffffffffffffff1614610560576040517f08c379a0000000000000000000000000000000000000000000000000000000008152600401610557906111ec565b60405180910390fd5b600081116105a3576040517f08c379a000000000000000000000000000000000000000000000000000000000815260040161059a90611258565b60405180910390fd5b8060028190555050565b60008054906101000a900473ffffffffffffffffffffffffffffffffffffffff1673ffffffffffffffffffffffffffffffffffffffff163373ffffffffffffffffffffffffffffffffffffffff161461063b576040517f08c379a0000000000000000000000000000000000000000000000000000000008152600401610632906111ec565b60405180910390fd5b6000471161067e576040517f08c379a0000000000000000000000000000000000000000000000000000000008152600401610675906112c4565b60405180910390fd5b8073ffffffffffffffffffffffffffffffffffffffff166108fc479081150290604051600060405180830381858888f193505050501580156106c4573d6000803e3d6000fd5b5050565b60035481565b600154341015610713576040517f08c379a000000000000000000000000000000000000000000000000000000000815260040161070a90611356565b60405180910390fd5b6000600460009054906101000a900473ffffffffffffffffffffffffffffffffffffffff1673ffffffffffffffffffffffffffffffffffffffff1663eacabe1433846040518363ffffffff1660e01b8152600401610772929190610ff9565b6020604051808303816000875af1158015610791573d6000803e3d6000fd5b505050506040513d601f19601f820116820180604052508101906107b5919061103e565b90503373ffffffffffffffffffffffffffffffffffffffff167f7d6a444bcc9cff051f19d7e8343deec16f30fcb8a77480716f08820bfd7b56dd826040516107fd91906113c2565b60405180910390a25050565b60008054906101000a900473ffffffffffffffffffffffffffffffffffffffff1681565b60008054906101000a900473ffffffffffffffffffffffffffffffffffffffff1673ffffffffffffffffffffffffffffffffffffffff163373ffffffffffffffffffffffffffffffffffffffff16146108bb576040517f08c379a00000000000000000000000000000000000000000000000000000000081526004016108b2906111ec565b60405180910390fd5b600081116108fe576040517f08c379a00000000000000000000000000000000000000000000000000000000081526004016108f590611462565b60405180910390fd5b8060038190555050565b60008054906101000a900473ffffffffffffffffffffffffffffffffffffffff1673ffffffffffffffffffffffffffffffffffffffff163373ffffffffffffffffffffffffffffffffffffffff1614610996576040517f08c379a000000000000000000000000000000000000000000000000000000000815260040161098d906111ec565b60405180910390fd5b600081116109d9576040517f08c379a00000000000000000000000000000000000000000000000000000000081526004016109d090611258565b60405180910390fd5b8060018190555050565b600460009054906101000a900473ffffffffffffffffffffffffffffffffffffffff1681565b6000819050919050565b610a1c81610a09565b82525050565b6000602082019050610a376000830184610a13565b92915050565b6000604051905090565b600080fd5b600080fd5b600080fd5b600080fd5b6000601f19601f8301169050919050565b7f4e487b7100000000000000000000000000000000000000000000000000000000600052604160045260246000fd5b610aa482610a5b565b810181811067ffffffffffffffff82111715610ac357610ac2610a6c565b5b80604052505050565b6000610ad6610a3d565b9050610ae28282610a9b565b919050565b600067ffffffffffffffff821115610b0257610b01610a6c565b5b610b0b82610a5b565b9050602081019050919050565b82818337600083830152505050565b6000610b3a610b3584610ae7565b610acc565b905082815260208101848484011115610b5657610b55610a56565b5b610b61848285610b18565b509392505050565b600082601f830112610b7e57610b7d610a51565b5b8135610b8e848260208601610b27565b91505092915050565b600060208284031215610bad57610bac610a47565b5b600082013567ffffffffffffffff811115610bcb57610bca610a4c565b5b610bd784828501610b69565b91505092915050565b610be981610a09565b8114610bf457600080fd5b50565b600081359050610c0681610be0565b92915050565b600060208284031215610c2257610c21610a47565b5b6000610c3084828501610bf7565b91505092915050565b600073ffffffffffffffffffffffffffffffffffffffff82169050919050565b6000610c6482610c39565b9050919050565b610c7481610c59565b8114610c7f57600080fd5b50565b600081359050610c9181610c6b565b92915050565b600060208284031215610cad57610cac610a47565b5b6000610cbb84828501610c82565b91505092915050565b6000610ccf82610c39565b9050919050565b610cdf81610cc4565b82525050565b6000602082019050610cfa6000830184610cd6565b92915050565b6000819050919050565b6000610d25610d20610d1b84610c39565b610d00565b610c39565b9050919050565b6000610d3782610d0a565b9050919050565b6000610d4982610d2c565b9050919050565b610d5981610d3e565b82525050565b6000602082019050610d746000830184610d50565b92915050565b600082825260208201905092915050565b7f4d6f6e746f20696e737566696369656e7465207061726120696e74656e746172600082015250565b6000610dc1602083610d7a565b9150610dcc82610d8b565b602082019050919050565b60006020820190508181036000830152610df081610db4565b9050919050565b7f4e487b7100000000000000000000000000000000000000000000000000000000600052601160045260246000fd5b6000610e3182610a09565b9150610e3c83610a09565b9250828203905081811115610e5457610e53610df7565b5b92915050565b6000819050919050565b610e75610e7082610a09565b610e5a565b82525050565b60008160601b9050919050565b6000610e9382610e7b565b9050919050565b6000610ea582610e88565b9050919050565b610ebd610eb882610cc4565b610e9a565b82525050565b6000819050919050565b6000819050919050565b610ee8610ee382610ec3565b610ecd565b82525050565b6000610efa8286610e64565b602082019150610f0a8285610eac565b601482019150610f1a8284610ed7565b602082019150819050949350505050565b7f4e487b7100000000000000000000000000000000000000000000000000000000600052601260045260246000fd5b6000610f6582610a09565b9150610f7083610a09565b925082610f8057610f7f610f2b565b5b828206905092915050565b600081519050919050565b60005b83811015610fb4578082015181840152602081019050610f99565b60008484015250505050565b6000610fcb82610f8b565b610fd58185610d7a565b9350610fe5818560208601610f96565b610fee81610a5b565b840191505092915050565b600060408201905061100e6000830185610cd6565b81810360208301526110208184610fc0565b90509392505050565b60008151905061103881610be0565b92915050565b60006020828403121561105457611053610a47565b5b600061106284828501611029565b91505092915050565b60008115159050919050565b6110808161106b565b82525050565b7f46656c69636964616465732c2067616e6173746520756e204e46540000000000600082015250565b60006110bc601b83610d7a565b91506110c782611086565b602082019050919050565b60006040820190506110e76000830184611077565b81810360208301526110f8816110af565b905092915050565b7f496e74656e74616c6f206465206e7565766f0000000000000000000000000000600082015250565b6000611136601283610d7a565b915061114182611100565b602082019050919050565b60006040820190506111616000830184611077565b818103602083015261117281611129565b905092915050565b7f536f6c6f20656c2070726f706965746172696f20707565646520656a6563757460008201527f617220657374612066756e63696f6e0000000000000000000000000000000000602082015250565b60006111d6602f83610d7a565b91506111e18261117a565b604082019050919050565b60006020820190508181036000830152611205816111c9565b9050919050565b7f456c2070726563696f206465626520736572206d61796f722061203000000000600082015250565b6000611242601c83610d7a565b915061124d8261120c565b602082019050919050565b6000602082019050818103600083015261127181611235565b9050919050565b7f4e6f2068617920666f6e646f7320706172612072657469726172000000000000600082015250565b60006112ae601a83610d7a565b91506112b982611278565b602082019050919050565b600060208201905081810360008301526112dd816112a1565b9050919050565b7f4d6f6e746f20696e737566696369656e7465207061726120636f6d707261722060008201527f656c204e46540000000000000000000000000000000000000000000000000000602082015250565b6000611340602683610d7a565b915061134b826112e4565b604082019050919050565b6000602082019050818103600083015261136f81611333565b9050919050565b7f48617320636f6d707261646f20756e204e465420636f6e20657869746f000000600082015250565b60006113ac601d83610d7a565b91506113b782611376565b602082019050919050565b60006040820190506113d76000830184610a13565b81810360208301526113e88161139f565b905092915050565b7f4c612070726f626162696c69646164206465626520736572206d61796f72206160008201527f2030000000000000000000000000000000000000000000000000000000000000602082015250565b600061144c602283610d7a565b9150611457826113f0565b604082019050919050565b6000602082019050818103600083015261147b8161143f565b905091905056fea26469706673582212200fc32be010bd98737e01bd1d9e557efcc1321e0ba24b9c80b4963db7cc0d892364736f6c63430008110033",
  "linkReferences": {},
  "deployedLinkReferences": {}
}