{
  "_format": "hh-sol-artifact-1",
  "contractName": "NFTFactory",
  "sourceName": "contracts/NFTFactory.sol",
  "abi": [
    {
      "inputs": [],
      "stateMutability": "nonpayable",
      "type": "constructor"
    },
    {
      "anonymous": false,
      "inputs": [
        {
          "indexed": true,
          "internalType": "address",
          "name": "owner",
          "type": "address"
        },
        {
          "indexed": true,
          "internalType": "address",
          "name": "approved",
          "type": "address"
        },
        {
          "indexed": true,
          "internalType": "uint256",
          "name": "tokenId",
          "type": "uint256"
        }
      ],
      "name": "Approval",
      "type": "event"
    },
    {
      "anonymous": false,
      "inputs": [
        {
          "indexed": true,
          "internalType": "address",
          "name": "owner",
          "type": "address"
        },
        {
          "indexed": true,
          "internalType": "address",
          "name": "operator",
          "type": "address"
        },
        {
          "indexed": false,
          "internalType": "bool",
          "name": "approved",
          "type": "bool"
        }
      ],
      "name": "ApprovalForAll",
      "type": "event"
    },
    {
      "anonymous": false,
      "inputs": [
        {
          "indexed": true,
          "internalType": "address",
          "name": "previousOwner",
          "type": "address"
        },
        {
          "indexed": true,
          "internalType": "address",
          "name": "newOwner",
          "type": "address"
        }
      ],
      "name": "OwnershipTransferred",
      "type": "event"
    },
    {
      "anonymous": false,
      "inputs": [
        {
          "indexed": true,
          "internalType": "address",
          "name": "from",
          "type": "address"
        },
        {
          "indexed": true,
          "internalType": "address",
          "name": "to",
          "type": "address"
        },
        {
          "indexed": true,
          "internalType": "uint256",
          "name": "tokenId",
          "type": "uint256"
        }
      ],
      "name": "Transfer",
      "type": "event"
    },
    {
      "inputs": [
        {
          "internalType": "address",
          "name": "to",
          "type": "address"
        },
        {
          "internalType": "uint256",
          "name": "tokenId",
          "type": "uint256"
        }
      ],
      "name": "approve",
      "outputs": [],
      "stateMutability": "nonpayable",
      "type": "function"
    },
    {
      "inputs": [
        {
          "internalType": "address",
          "name": "owner",
          "type": "address"
        }
      ],
      "name": "balanceOf",
      "outputs": [
        {
          "internalType": "uint256",
          "name": "",
          "type": "uint256"
        }
      ],
      "stateMutability": "view",
      "type": "function"
    },
    {
      "inputs": [
        {
          "internalType": "uint256",
          "name": "tokenId",
          "type": "uint256"
        }
      ],
      "name": "getApproved",
      "outputs": [
        {
          "internalType": "address",
          "name": "",
          "type": "address"
        }
      ],
      "stateMutability": "view",
      "type": "function"
    },
    {
      "inputs": [
        {
          "internalType": "address",
          "name": "owner",
          "type": "address"
        },
        {
          "internalType": "address",
          "name": "operator",
          "type": "address"
        }
      ],
      "name": "isApprovedForAll",
      "outputs": [
        {
          "internalType": "bool",
          "name": "",
          "type": "bool"
        }
      ],
      "stateMutability": "view",
      "type": "function"
    },
    {
      "inputs": [
        {
          "internalType": "address",
          "name": "recipient",
          "type": "address"
        },
        {
          "internalType": "string",
          "name": "_tokenURI",
          "type": "string"
        }
      ],
      "name": "mintNFT",
      "outputs": [
        {
          "internalType": "uint256",
          "name": "",
          "type": "uint256"
        }
      ],
      "stateMutability": "nonpayable",
      "type": "function"
    },
    {
      "inputs": [],
      "name": "name",
      "outputs": [
        {
          "internalType": "string",
          "name": "",
          "type": "string"
        }
      ],
      "stateMutability": "view",
      "type": "function"
    },
    {
      "inputs": [],
      "name": "owner",
      "outputs": [
        {
          "internalType": "address",
          "name": "",
          "type": "address"
        }
      ],
      "stateMutability": "view",
      "type": "function"
    },
    {
      "inputs": [
        {
          "internalType": "uint256",
          "name": "tokenId",
          "type": "uint256"
        }
      ],
      "name": "ownerOf",
      "outputs": [
        {
          "internalType": "address",
          "name": "",
          "type": "address"
        }
      ],
      "stateMutability": "view",
      "type": "function"
    },
    {
      "inputs": [],
      "name": "renounceOwnership",
      "outputs": [],
      "stateMutability": "nonpayable",
      "type": "function"
    },
    {
      "inputs": [
        {
          "internalType": "address",
          "name": "from",
          "type": "address"
        },
        {
          "internalType": "address",
          "name": "to",
          "type": "address"
        },
        {
          "internalType": "uint256",
          "name": "tokenId",
          "type": "uint256"
        }
      ],
      "name": "safeTransferFrom",
      "outputs": [],
      "stateMutability": "nonpayable",
      "type": "function"
    },
    {
      "inputs": [
        {
          "internalType": "address",
          "name": "from",
          "type": "address"
        },
        {
          "internalType": "address",
          "name": "to",
          "type": "address"
        },
        {
          "internalType": "uint256",
          "name": "tokenId",
          "type": "uint256"
        },
        {
          "internalType": "bytes",
          "name": "data",
          "type": "bytes"
        }
      ],
      "name": "safeTransferFrom",
      "outputs": [],
      "stateMutability": "nonpayable",
      "type": "function"
    },
    {
      "inputs": [
        {
          "internalType": "address",
          "name": "operator",
          "type": "address"
        },
        {
          "internalType": "bool",
          "name": "approved",
          "type": "bool"
        }
      ],
      "name": "setApprovalForAll",
      "outputs": [],
      "stateMutability": "nonpayable",
      "type": "function"
    },
    {
      "inputs": [
        {
          "internalType": "string",
          "name": "baseURI",
          "type": "string"
        }
      ],
      "name": "setBaseURI",
      "outputs": [],
      "stateMutability": "nonpayable",
      "type": "function"
    },
    {
      "inputs": [
        {
          "internalType": "bytes4",
          "name": "interfaceId",
          "type": "bytes4"
        }
      ],
      "name": "supportsInterface",
      "outputs": [
        {
          "internalType": "bool",
          "name": "",
          "type": "bool"
        }
      ],
      "stateMutability": "view",
      "type": "function"
    },
    {
      "inputs": [],
      "name": "symbol",
      "outputs": [
        {
          "internalType": "string",
          "name": "",
          "type": "string"
        }
      ],
      "stateMutability": "view",
      "type": "function"
    },
    {
      "inputs": [
        {
          "internalType": "uint256",
          "name": "tokenId",
          "type": "uint256"
        }
      ],
      "name": "tokenURI",
      "outputs": [
        {
          "internalType": "string",
          "name": "",
          "type": "string"
        }
      ],
      "stateMutability": "view",
      "type": "function"
    },
    {
      "inputs": [
        {
          "internalType": "address",
          "name": "owner",
          "type": "address"
        }
      ],
      "name": "tokensOfOwner",
      "outputs": [
        {
          "internalType": "uint256[]",
          "name": "",
          "type": "uint256[]"
        }
      ],
      "stateMutability": "view",
      "type": "function"
    },
    {
      "inputs": [
        {
          "internalType": "address",
          "name": "from",
          "type": "address"
        },
        {
          "internalType": "address",
          "name": "to",
          "type": "address"
        },
        {
          "internalType": "uint256",
          "name": "tokenId",
          "type": "uint256"
        }
      ],
      "name": "transferFrom",
      "outputs": [],
      "stateMutability": "nonpayable",
      "type": "function"
    },
    {
      "inputs": [
        {
          "internalType": "address",
          "name": "newOwner",
          "type": "address"
        }
      ],
      "name": "transferOwnership",
      "outputs": [],
      "stateMutability": "nonpayable",
      "type": "function"
    }
  ],
  "bytecode": "0x60806040523480156200001157600080fd5b506040518060400160405280600a81526020017f4e4654466163746f7279000000000000000000000000000000000000000000008152506040518060400160405280600481526020017f4e4654430000000000000000000000000000000000000000000000000000000081525081600090816200008f919062000412565b508060019081620000a1919062000412565b505050620000c4620000b8620000ca60201b60201c565b620000d260201b60201c565b620004f9565b600033905090565b6000600660009054906101000a900473ffffffffffffffffffffffffffffffffffffffff16905081600660006101000a81548173ffffffffffffffffffffffffffffffffffffffff021916908373ffffffffffffffffffffffffffffffffffffffff1602179055508173ffffffffffffffffffffffffffffffffffffffff168173ffffffffffffffffffffffffffffffffffffffff167f8be0079c531659141344cd1fd0a4f28419497f9722a3daafe3b4186f6b6457e060405160405180910390a35050565b600081519050919050565b7f4e487b7100000000000000000000000000000000000000000000000000000000600052604160045260246000fd5b7f4e487b7100000000000000000000000000000000000000000000000000000000600052602260045260246000fd5b600060028204905060018216806200021a57607f821691505b60208210810362000230576200022f620001d2565b5b50919050565b60008190508160005260206000209050919050565b60006020601f8301049050919050565b600082821b905092915050565b6000600883026200029a7fffffffffffffffffffffffffffffffffffffffffffffffffffffffffffffffff826200025b565b620002a686836200025b565b95508019841693508086168417925050509392505050565b6000819050919050565b6000819050919050565b6000620002f3620002ed620002e784620002be565b620002c8565b620002be565b9050919050565b6000819050919050565b6200030f83620002d2565b620003276200031e82620002fa565b84845462000268565b825550505050565b600090565b6200033e6200032f565b6200034b81848462000304565b505050565b5b8181101562000373576200036760008262000334565b60018101905062000351565b5050565b601f821115620003c2576200038c8162000236565b62000397846200024b565b81016020851015620003a7578190505b620003bf620003b6856200024b565b83018262000350565b50505b505050565b600082821c905092915050565b6000620003e760001984600802620003c7565b1980831691505092915050565b6000620004028383620003d4565b9150826002028217905092915050565b6200041d8262000198565b67ffffffffffffffff811115620004395762000438620001a3565b5b62000445825462000201565b6200045282828562000377565b600060209050601f8311600181146200048a576000841562000475578287015190505b620004818582620003f4565b865550620004f1565b601f1984166200049a8662000236565b60005b82811015620004c4578489015182556001820191506020850194506020810190506200049d565b86831015620004e45784890151620004e0601f891682620003d4565b8355505b6001600288020188555050505b505050505050565b61320680620005096000396000f3fe608060405234801561001057600080fd5b50600436106101215760003560e01c8063715018a6116100ad578063b88d4fde11610071578063b88d4fde14610306578063c87b56dd14610322578063e985e9c514610352578063eacabe1414610382578063f2fde38b146103b257610121565b8063715018a6146102745780638462151c1461027e5780638da5cb5b146102ae57806395d89b41146102cc578063a22cb465146102ea57610121565b806323b872dd116100f457806323b872dd146101c057806342842e0e146101dc57806355f804b3146101f85780636352211e1461021457806370a082311461024457610121565b806301ffc9a71461012657806306fdde0314610156578063081812fc14610174578063095ea7b3146101a4575b600080fd5b610140600480360381019061013b9190611d96565b6103ce565b60405161014d9190611dde565b60405180910390f35b61015e6104b0565b60405161016b9190611e89565b60405180910390f35b61018e60048036038101906101899190611ee1565b610542565b60405161019b9190611f4f565b60405180910390f35b6101be60048036038101906101b99190611f96565b610588565b005b6101da60048036038101906101d59190611fd6565b61069f565b005b6101f660048036038101906101f19190611fd6565b6106ff565b005b610212600480360381019061020d919061215e565b61071f565b005b61022e60048036038101906102299190611ee1565b61073a565b60405161023b9190611f4f565b60405180910390f35b61025e600480360381019061025991906121a7565b6107c0565b60405161026b91906121e3565b60405180910390f35b61027c610877565b005b610298600480360381019061029391906121a7565b61088b565b6040516102a591906122bc565b60405180910390f35b6102b6610988565b6040516102c39190611f4f565b60405180910390f35b6102d46109b2565b6040516102e19190611e89565b60405180910390f35b61030460048036038101906102ff919061230a565b610a44565b005b610320600480360381019061031b91906123eb565b610a5a565b005b61033c60048036038101906103379190611ee1565b610abc565b6040516103499190611e89565b60405180910390f35b61036c6004803603810190610367919061246e565b610c2e565b6040516103799190611dde565b60405180910390f35b61039c600480360381019061039791906124ae565b610cc2565b6040516103a991906121e3565b60405180910390f35b6103cc60048036038101906103c791906121a7565b610d02565b005b60007f80ac58cd000000000000000000000000000000000000000000000000000000007bffffffffffffffffffffffffffffffffffffffffffffffffffffffff1916827bffffffffffffffffffffffffffffffffffffffffffffffffffffffff1916148061049957507f5b5e139f000000000000000000000000000000000000000000000000000000007bffffffffffffffffffffffffffffffffffffffffffffffffffffffff1916827bffffffffffffffffffffffffffffffffffffffffffffffffffffffff1916145b806104a957506104a882610d85565b5b9050919050565b6060600080546104bf90612539565b80601f01602080910402602001604051908101604052809291908181526020018280546104eb90612539565b80156105385780601f1061050d57610100808354040283529160200191610538565b820191906000526020600020905b81548152906001019060200180831161051b57829003601f168201915b5050505050905090565b600061054d82610def565b6004600083815260200190815260200160002060009054906101000a900473ffffffffffffffffffffffffffffffffffffffff169050919050565b60006105938261073a565b90508073ffffffffffffffffffffffffffffffffffffffff168373ffffffffffffffffffffffffffffffffffffffff1603610603576040517f08c379a00000000000000000000000000000000000000000000000000000000081526004016105fa906125dc565b60405180910390fd5b8073ffffffffffffffffffffffffffffffffffffffff16610622610e3a565b73ffffffffffffffffffffffffffffffffffffffff16148061065157506106508161064b610e3a565b610c2e565b5b610690576040517f08c379a00000000000000000000000000000000000000000000000000000000081526004016106879061266e565b60405180910390fd5b61069a8383610e42565b505050565b6106b06106aa610e3a565b82610efb565b6106ef576040517f08c379a00000000000000000000000000000000000000000000000000000000081526004016106e690612700565b60405180910390fd5b6106fa838383610f90565b505050565b61071a83838360405180602001604052806000815250610a5a565b505050565b610727611289565b806009908161073691906128cc565b5050565b60008061074683611307565b9050600073ffffffffffffffffffffffffffffffffffffffff168173ffffffffffffffffffffffffffffffffffffffff16036107b7576040517f08c379a00000000000000000000000000000000000000000000000000000000081526004016107ae906129ea565b60405180910390fd5b80915050919050565b60008073ffffffffffffffffffffffffffffffffffffffff168273ffffffffffffffffffffffffffffffffffffffff1603610830576040517f08c379a000000000000000000000000000000000000000000000000000000000815260040161082790612a7c565b60405180910390fd5b600360008373ffffffffffffffffffffffffffffffffffffffff1673ffffffffffffffffffffffffffffffffffffffff168152602001908152602001600020549050919050565b61087f611289565b6108896000611344565b565b60606000610898836107c0565b905060008167ffffffffffffffff8111156108b6576108b5612033565b5b6040519080825280602002602001820160405280156108e45781602001602082028036833780820191505090505b509050600080600190505b6108f9600761140a565b811161097c578573ffffffffffffffffffffffffffffffffffffffff1661091f8261073a565b73ffffffffffffffffffffffffffffffffffffffff1603610969578083838151811061094e5761094d612a9c565b5b602002602001018181525050818061096590612afa565b9250505b808061097490612afa565b9150506108ef565b50819350505050919050565b6000600660009054906101000a900473ffffffffffffffffffffffffffffffffffffffff16905090565b6060600180546109c190612539565b80601f01602080910402602001604051908101604052809291908181526020018280546109ed90612539565b8015610a3a5780601f10610a0f57610100808354040283529160200191610a3a565b820191906000526020600020905b815481529060010190602001808311610a1d57829003601f168201915b5050505050905090565b610a56610a4f610e3a565b8383611418565b5050565b610a6b610a65610e3a565b83610efb565b610aaa576040517f08c379a0000000000000000000000000000000000000000000000000000000008152600401610aa190612700565b60405180910390fd5b610ab684848484611584565b50505050565b6060610ac7826115e0565b610b06576040517f08c379a0000000000000000000000000000000000000000000000000000000008152600401610afd90612bb4565b60405180910390fd5b6000600860008481526020019081526020016000208054610b2690612539565b80601f0160208091040260200160405190810160405280929190818152602001828054610b5290612539565b8015610b9f5780601f10610b7457610100808354040283529160200191610b9f565b820191906000526020600020905b815481529060010190602001808311610b8257829003601f168201915b505050505090506000610bb0611621565b90506000815103610bc5578192505050610c29565b600082511115610bfa578082604051602001610be2929190612c10565b60405160208183030381529060405292505050610c29565b80610c04856116b3565b604051602001610c15929190612c10565b604051602081830303815290604052925050505b919050565b6000600560008473ffffffffffffffffffffffffffffffffffffffff1673ffffffffffffffffffffffffffffffffffffffff16815260200190815260200160002060008373ffffffffffffffffffffffffffffffffffffffff1673ffffffffffffffffffffffffffffffffffffffff16815260200190815260200160002060009054906101000a900460ff16905092915050565b6000610ccc611289565b610cd66007611781565b6000610ce2600761140a565b9050610cee8482611797565b610cf881846119b4565b8091505092915050565b610d0a611289565b600073ffffffffffffffffffffffffffffffffffffffff168173ffffffffffffffffffffffffffffffffffffffff1603610d79576040517f08c379a0000000000000000000000000000000000000000000000000000000008152600401610d7090612ca6565b60405180910390fd5b610d8281611344565b50565b60007f01ffc9a7000000000000000000000000000000000000000000000000000000007bffffffffffffffffffffffffffffffffffffffffffffffffffffffff1916827bffffffffffffffffffffffffffffffffffffffffffffffffffffffff1916149050919050565b610df8816115e0565b610e37576040517f08c379a0000000000000000000000000000000000000000000000000000000008152600401610e2e906129ea565b60405180910390fd5b50565b600033905090565b816004600083815260200190815260200160002060006101000a81548173ffffffffffffffffffffffffffffffffffffffff021916908373ffffffffffffffffffffffffffffffffffffffff160217905550808273ffffffffffffffffffffffffffffffffffffffff16610eb58361073a565b73ffffffffffffffffffffffffffffffffffffffff167f8c5be1e5ebec7d5bd14f71427d1e84f3dd0314c0f7b2291e5b200ac8c7c3b92560405160405180910390a45050565b600080610f078361073a565b90508073ffffffffffffffffffffffffffffffffffffffff168473ffffffffffffffffffffffffffffffffffffffff161480610f495750610f488185610c2e565b5b80610f8757508373ffffffffffffffffffffffffffffffffffffffff16610f6f84610542565b73ffffffffffffffffffffffffffffffffffffffff16145b91505092915050565b8273ffffffffffffffffffffffffffffffffffffffff16610fb08261073a565b73ffffffffffffffffffffffffffffffffffffffff1614611006576040517f08c379a0000000000000000000000000000000000000000000000000000000008152600401610ffd90612d38565b60405180910390fd5b600073ffffffffffffffffffffffffffffffffffffffff168273ffffffffffffffffffffffffffffffffffffffff1603611075576040517f08c379a000000000000000000000000000000000000000000000000000000000815260040161106c90612dca565b60405180910390fd5b6110828383836001611a21565b8273ffffffffffffffffffffffffffffffffffffffff166110a28261073a565b73ffffffffffffffffffffffffffffffffffffffff16146110f8576040517f08c379a00000000000000000000000000000000000000000000000000000000081526004016110ef90612d38565b60405180910390fd5b6004600082815260200190815260200160002060006101000a81549073ffffffffffffffffffffffffffffffffffffffff02191690556001600360008573ffffffffffffffffffffffffffffffffffffffff1673ffffffffffffffffffffffffffffffffffffffff168152602001908152602001600020600082825403925050819055506001600360008473ffffffffffffffffffffffffffffffffffffffff1673ffffffffffffffffffffffffffffffffffffffff16815260200190815260200160002060008282540192505081905550816002600083815260200190815260200160002060006101000a81548173ffffffffffffffffffffffffffffffffffffffff021916908373ffffffffffffffffffffffffffffffffffffffff160217905550808273ffffffffffffffffffffffffffffffffffffffff168473ffffffffffffffffffffffffffffffffffffffff167fddf252ad1be2c89b69c2b068fc378daa952ba7f163c4a11628f55a4df523b3ef60405160405180910390a46112848383836001611a27565b505050565b611291610e3a565b73ffffffffffffffffffffffffffffffffffffffff166112af610988565b73ffffffffffffffffffffffffffffffffffffffff1614611305576040517f08c379a00000000000000000000000000000000000000000000000000000000081526004016112fc90612e36565b60405180910390fd5b565b60006002600083815260200190815260200160002060009054906101000a900473ffffffffffffffffffffffffffffffffffffffff169050919050565b6000600660009054906101000a900473ffffffffffffffffffffffffffffffffffffffff16905081600660006101000a81548173ffffffffffffffffffffffffffffffffffffffff021916908373ffffffffffffffffffffffffffffffffffffffff1602179055508173ffffffffffffffffffffffffffffffffffffffff168173ffffffffffffffffffffffffffffffffffffffff167f8be0079c531659141344cd1fd0a4f28419497f9722a3daafe3b4186f6b6457e060405160405180910390a35050565b600081600001549050919050565b8173ffffffffffffffffffffffffffffffffffffffff168373ffffffffffffffffffffffffffffffffffffffff1603611486576040517f08c379a000000000000000000000000000000000000000000000000000000000815260040161147d90612ea2565b60405180910390fd5b80600560008573ffffffffffffffffffffffffffffffffffffffff1673ffffffffffffffffffffffffffffffffffffffff16815260200190815260200160002060008473ffffffffffffffffffffffffffffffffffffffff1673ffffffffffffffffffffffffffffffffffffffff16815260200190815260200160002060006101000a81548160ff0219169083151502179055508173ffffffffffffffffffffffffffffffffffffffff168373ffffffffffffffffffffffffffffffffffffffff167f17307eab39ab6107e8899845ad3d59bd9653f200f220920489ca2b5937696c31836040516115779190611dde565b60405180910390a3505050565b61158f848484610f90565b61159b84848484611a2d565b6115da576040517f08c379a00000000000000000000000000000000000000000000000000000000081526004016115d190612f34565b60405180910390fd5b50505050565b60008073ffffffffffffffffffffffffffffffffffffffff1661160283611307565b73ffffffffffffffffffffffffffffffffffffffff1614159050919050565b60606009805461163090612539565b80601f016020809104026020016040519081016040528092919081815260200182805461165c90612539565b80156116a95780601f1061167e576101008083540402835291602001916116a9565b820191906000526020600020905b81548152906001019060200180831161168c57829003601f168201915b5050505050905090565b6060600060016116c284611bb4565b01905060008167ffffffffffffffff8111156116e1576116e0612033565b5b6040519080825280601f01601f1916602001820160405280156117135781602001600182028036833780820191505090505b509050600082602001820190505b600115611776578080600190039150507f3031323334353637383961626364656600000000000000000000000000000000600a86061a8153600a858161176a57611769612f54565b5b04945060008503611721575b819350505050919050565b6001816000016000828254019250508190555050565b600073ffffffffffffffffffffffffffffffffffffffff168273ffffffffffffffffffffffffffffffffffffffff1603611806576040517f08c379a00000000000000000000000000000000000000000000000000000000081526004016117fd90612fcf565b60405180910390fd5b61180f816115e0565b1561184f576040517f08c379a00000000000000000000000000000000000000000000000000000000081526004016118469061303b565b60405180910390fd5b61185d600083836001611a21565b611866816115e0565b156118a6576040517f08c379a000000000000000000000000000000000000000000000000000000000815260040161189d9061303b565b60405180910390fd5b6001600360008473ffffffffffffffffffffffffffffffffffffffff1673ffffffffffffffffffffffffffffffffffffffff16815260200190815260200160002060008282540192505081905550816002600083815260200190815260200160002060006101000a81548173ffffffffffffffffffffffffffffffffffffffff021916908373ffffffffffffffffffffffffffffffffffffffff160217905550808273ffffffffffffffffffffffffffffffffffffffff16600073ffffffffffffffffffffffffffffffffffffffff167fddf252ad1be2c89b69c2b068fc378daa952ba7f163c4a11628f55a4df523b3ef60405160405180910390a46119b0600083836001611a27565b5050565b6119bd826115e0565b6119fc576040517f08c379a00000000000000000000000000000000000000000000000000000000081526004016119f3906130cd565b60405180910390fd5b80600860008481526020019081526020016000209081611a1c91906128cc565b505050565b50505050565b50505050565b6000611a4e8473ffffffffffffffffffffffffffffffffffffffff16611d07565b15611ba7578373ffffffffffffffffffffffffffffffffffffffff1663150b7a02611a77610e3a565b8786866040518563ffffffff1660e01b8152600401611a999493929190613142565b6020604051808303816000875af1925050508015611ad557506040513d601f19601f82011682018060405250810190611ad291906131a3565b60015b611b57573d8060008114611b05576040519150601f19603f3d011682016040523d82523d6000602084013e611b0a565b606091505b506000815103611b4f576040517f08c379a0000000000000000000000000000000000000000000000000000000008152600401611b4690612f34565b60405180910390fd5b805181602001fd5b63150b7a0260e01b7bffffffffffffffffffffffffffffffffffffffffffffffffffffffff1916817bffffffffffffffffffffffffffffffffffffffffffffffffffffffff191614915050611bac565b600190505b949350505050565b600080600090507a184f03e93ff9f4daa797ed6e38ed64bf6a1f0100000000000000008310611c12577a184f03e93ff9f4daa797ed6e38ed64bf6a1f0100000000000000008381611c0857611c07612f54565b5b0492506040810190505b6d04ee2d6d415b85acef81000000008310611c4f576d04ee2d6d415b85acef81000000008381611c4557611c44612f54565b5b0492506020810190505b662386f26fc100008310611c7e57662386f26fc100008381611c7457611c73612f54565b5b0492506010810190505b6305f5e1008310611ca7576305f5e1008381611c9d57611c9c612f54565b5b0492506008810190505b6127108310611ccc576127108381611cc257611cc1612f54565b5b0492506004810190505b60648310611cef5760648381611ce557611ce4612f54565b5b0492506002810190505b600a8310611cfe576001810190505b80915050919050565b6000808273ffffffffffffffffffffffffffffffffffffffff163b119050919050565b6000604051905090565b600080fd5b600080fd5b60007fffffffff0000000000000000000000000000000000000000000000000000000082169050919050565b611d7381611d3e565b8114611d7e57600080fd5b50565b600081359050611d9081611d6a565b92915050565b600060208284031215611dac57611dab611d34565b5b6000611dba84828501611d81565b91505092915050565b60008115159050919050565b611dd881611dc3565b82525050565b6000602082019050611df36000830184611dcf565b92915050565b600081519050919050565b600082825260208201905092915050565b60005b83811015611e33578082015181840152602081019050611e18565b60008484015250505050565b6000601f19601f8301169050919050565b6000611e5b82611df9565b611e658185611e04565b9350611e75818560208601611e15565b611e7e81611e3f565b840191505092915050565b60006020820190508181036000830152611ea38184611e50565b905092915050565b6000819050919050565b611ebe81611eab565b8114611ec957600080fd5b50565b600081359050611edb81611eb5565b92915050565b600060208284031215611ef757611ef6611d34565b5b6000611f0584828501611ecc565b91505092915050565b600073ffffffffffffffffffffffffffffffffffffffff82169050919050565b6000611f3982611f0e565b9050919050565b611f4981611f2e565b82525050565b6000602082019050611f646000830184611f40565b92915050565b611f7381611f2e565b8114611f7e57600080fd5b50565b600081359050611f9081611f6a565b92915050565b60008060408385031215611fad57611fac611d34565b5b6000611fbb85828601611f81565b9250506020611fcc85828601611ecc565b9150509250929050565b600080600060608486031215611fef57611fee611d34565b5b6000611ffd86828701611f81565b935050602061200e86828701611f81565b925050604061201f86828701611ecc565b9150509250925092565b600080fd5b600080fd5b7f4e487b7100000000000000000000000000000000000000000000000000000000600052604160045260246000fd5b61206b82611e3f565b810181811067ffffffffffffffff8211171561208a57612089612033565b5b80604052505050565b600061209d611d2a565b90506120a98282612062565b919050565b600067ffffffffffffffff8211156120c9576120c8612033565b5b6120d282611e3f565b9050602081019050919050565b82818337600083830152505050565b60006121016120fc846120ae565b612093565b90508281526020810184848401111561211d5761211c61202e565b5b6121288482856120df565b509392505050565b600082601f83011261214557612144612029565b5b81356121558482602086016120ee565b91505092915050565b60006020828403121561217457612173611d34565b5b600082013567ffffffffffffffff81111561219257612191611d39565b5b61219e84828501612130565b91505092915050565b6000602082840312156121bd576121bc611d34565b5b60006121cb84828501611f81565b91505092915050565b6121dd81611eab565b82525050565b60006020820190506121f860008301846121d4565b92915050565b600081519050919050565b600082825260208201905092915050565b6000819050602082019050919050565b61223381611eab565b82525050565b6000612245838361222a565b60208301905092915050565b6000602082019050919050565b6000612269826121fe565b6122738185612209565b935061227e8361221a565b8060005b838110156122af5781516122968882612239565b97506122a183612251565b925050600181019050612282565b5085935050505092915050565b600060208201905081810360008301526122d6818461225e565b905092915050565b6122e781611dc3565b81146122f257600080fd5b50565b600081359050612304816122de565b92915050565b6000806040838503121561232157612320611d34565b5b600061232f85828601611f81565b9250506020612340858286016122f5565b9150509250929050565b600067ffffffffffffffff82111561236557612364612033565b5b61236e82611e3f565b9050602081019050919050565b600061238e6123898461234a565b612093565b9050828152602081018484840111156123aa576123a961202e565b5b6123b58482856120df565b509392505050565b600082601f8301126123d2576123d1612029565b5b81356123e284826020860161237b565b91505092915050565b6000806000806080858703121561240557612404611d34565b5b600061241387828801611f81565b945050602061242487828801611f81565b935050604061243587828801611ecc565b925050606085013567ffffffffffffffff81111561245657612455611d39565b5b612462878288016123bd565b91505092959194509250565b6000806040838503121561248557612484611d34565b5b600061249385828601611f81565b92505060206124a485828601611f81565b9150509250929050565b600080604083850312156124c5576124c4611d34565b5b60006124d385828601611f81565b925050602083013567ffffffffffffffff8111156124f4576124f3611d39565b5b61250085828601612130565b9150509250929050565b7f4e487b7100000000000000000000000000000000000000000000000000000000600052602260045260246000fd5b6000600282049050600182168061255157607f821691505b6020821081036125645761256361250a565b5b50919050565b7f4552433732313a20617070726f76616c20746f2063757272656e74206f776e6560008201527f7200000000000000000000000000000000000000000000000000000000000000602082015250565b60006125c6602183611e04565b91506125d18261256a565b604082019050919050565b600060208201905081810360008301526125f5816125b9565b9050919050565b7f4552433732313a20617070726f76652063616c6c6572206973206e6f7420746f60008201527f6b656e206f776e6572206f7220617070726f76656420666f7220616c6c000000602082015250565b6000612658603d83611e04565b9150612663826125fc565b604082019050919050565b600060208201905081810360008301526126878161264b565b9050919050565b7f4552433732313a2063616c6c6572206973206e6f7420746f6b656e206f776e6560008201527f72206f7220617070726f76656400000000000000000000000000000000000000602082015250565b60006126ea602d83611e04565b91506126f58261268e565b604082019050919050565b60006020820190508181036000830152612719816126dd565b9050919050565b60008190508160005260206000209050919050565b60006020601f8301049050919050565b600082821b905092915050565b6000600883026127827fffffffffffffffffffffffffffffffffffffffffffffffffffffffffffffffff82612745565b61278c8683612745565b95508019841693508086168417925050509392505050565b6000819050919050565b60006127c96127c46127bf84611eab565b6127a4565b611eab565b9050919050565b6000819050919050565b6127e3836127ae565b6127f76127ef826127d0565b848454612752565b825550505050565b600090565b61280c6127ff565b6128178184846127da565b505050565b5b8181101561283b57612830600082612804565b60018101905061281d565b5050565b601f8211156128805761285181612720565b61285a84612735565b81016020851015612869578190505b61287d61287585612735565b83018261281c565b50505b505050565b600082821c905092915050565b60006128a360001984600802612885565b1980831691505092915050565b60006128bc8383612892565b9150826002028217905092915050565b6128d582611df9565b67ffffffffffffffff8111156128ee576128ed612033565b5b6128f88254612539565b61290382828561283f565b600060209050601f8311600181146129365760008415612924578287015190505b61292e85826128b0565b865550612996565b601f19841661294486612720565b60005b8281101561296c57848901518255600182019150602085019450602081019050612947565b868310156129895784890151612985601f891682612892565b8355505b6001600288020188555050505b505050505050565b7f4552433732313a20696e76616c696420746f6b656e2049440000000000000000600082015250565b60006129d4601883611e04565b91506129df8261299e565b602082019050919050565b60006020820190508181036000830152612a03816129c7565b9050919050565b7f4552433732313a2061646472657373207a65726f206973206e6f74206120766160008201527f6c6964206f776e65720000000000000000000000000000000000000000000000602082015250565b6000612a66602983611e04565b9150612a7182612a0a565b604082019050919050565b60006020820190508181036000830152612a9581612a59565b9050919050565b7f4e487b7100000000000000000000000000000000000000000000000000000000600052603260045260246000fd5b7f4e487b7100000000000000000000000000000000000000000000000000000000600052601160045260246000fd5b6000612b0582611eab565b91507fffffffffffffffffffffffffffffffffffffffffffffffffffffffffffffffff8203612b3757612b36612acb565b5b600182019050919050565b7f4552433732314d657461646174613a2055524920717565727920666f72206e6f60008201527f6e6578697374656e7420746f6b656e0000000000000000000000000000000000602082015250565b6000612b9e602f83611e04565b9150612ba982612b42565b604082019050919050565b60006020820190508181036000830152612bcd81612b91565b9050919050565b600081905092915050565b6000612bea82611df9565b612bf48185612bd4565b9350612c04818560208601611e15565b80840191505092915050565b6000612c1c8285612bdf565b9150612c288284612bdf565b91508190509392505050565b7f4f776e61626c653a206e6577206f776e657220697320746865207a65726f206160008201527f6464726573730000000000000000000000000000000000000000000000000000602082015250565b6000612c90602683611e04565b9150612c9b82612c34565b604082019050919050565b60006020820190508181036000830152612cbf81612c83565b9050919050565b7f4552433732313a207472616e736665722066726f6d20696e636f72726563742060008201527f6f776e6572000000000000000000000000000000000000000000000000000000602082015250565b6000612d22602583611e04565b9150612d2d82612cc6565b604082019050919050565b60006020820190508181036000830152612d5181612d15565b9050919050565b7f4552433732313a207472616e7366657220746f20746865207a65726f2061646460008201527f7265737300000000000000000000000000000000000000000000000000000000602082015250565b6000612db4602483611e04565b9150612dbf82612d58565b604082019050919050565b60006020820190508181036000830152612de381612da7565b9050919050565b7f4f776e61626c653a2063616c6c6572206973206e6f7420746865206f776e6572600082015250565b6000612e20602083611e04565b9150612e2b82612dea565b602082019050919050565b60006020820190508181036000830152612e4f81612e13565b9050919050565b7f4552433732313a20617070726f766520746f2063616c6c657200000000000000600082015250565b6000612e8c601983611e04565b9150612e9782612e56565b602082019050919050565b60006020820190508181036000830152612ebb81612e7f565b9050919050565b7f4552433732313a207472616e7366657220746f206e6f6e20455243373231526560008201527f63656976657220696d706c656d656e7465720000000000000000000000000000602082015250565b6000612f1e603283611e04565b9150612f2982612ec2565b604082019050919050565b60006020820190508181036000830152612f4d81612f11565b9050919050565b7f4e487b7100000000000000000000000000000000000000000000000000000000600052601260045260246000fd5b7f4552433732313a206d696e7420746f20746865207a65726f2061646472657373600082015250565b6000612fb9602083611e04565b9150612fc482612f83565b602082019050919050565b60006020820190508181036000830152612fe881612fac565b9050919050565b7f4552433732313a20746f6b656e20616c7265616479206d696e74656400000000600082015250565b6000613025601c83611e04565b915061303082612fef565b602082019050919050565b6000602082019050818103600083015261305481613018565b9050919050565b7f4552433732314d657461646174613a2055524920736574206f66206e6f6e657860008201527f697374656e7420746f6b656e0000000000000000000000000000000000000000602082015250565b60006130b7602c83611e04565b91506130c28261305b565b604082019050919050565b600060208201905081810360008301526130e6816130aa565b9050919050565b600081519050919050565b600082825260208201905092915050565b6000613114826130ed565b61311e81856130f8565b935061312e818560208601611e15565b61313781611e3f565b840191505092915050565b60006080820190506131576000830187611f40565b6131646020830186611f40565b61317160408301856121d4565b81810360608301526131838184613109565b905095945050505050565b60008151905061319d81611d6a565b92915050565b6000602082840312156131b9576131b8611d34565b5b60006131c78482850161318e565b9150509291505056fea2646970667358221220ee688ba7e7c38c914ea385c466132ef11ad2cd1de889342ca4e7543bfaeddebb64736f6c63430008110033",
  "linkReferences": {},
  "deployedLinkReferences": {}
}