{
  "_format": "hh-sol-artifact-1",
  "contractName": "DonationWallet",
  "sourceName": "contracts/DonationWallet.sol",
  "abi": [
    {
      "anonymous": false,
      "inputs": [
        {
          "indexed": true,
          "internalType": "address",
          "name": "from",
          "type": "address"
        },
        {
          "indexed": false,
          "internalType": "uint256",
          "name": "amount",
          "type": "uint256"
        }
      ],
      "name": "DonationReceived",
      "type": "event"
    },
    {
      "anonymous": false,
      "inputs": [
        {
          "indexed": true,
          "internalType": "address",
          "name": "previousOwner",
          "type": "address"
        },
        {
          "indexed": true,
          "internalType": "address",
          "name": "newOwner",
          "type": "address"
        }
      ],
      "name": "OwnershipTransferred",
      "type": "event"
    },
    {
      "anonymous": false,
      "inputs": [
        {
          "indexed": true,
          "internalType": "address",
          "name": "to",
          "type": "address"
        },
        {
          "indexed": false,
          "internalType": "uint256",
          "name": "amount",
          "type": "uint256"
        }
      ],
      "name": "Withdrawal",
      "type": "event"
    },
    {
      "inputs": [],
      "name": "getBalance",
      "outputs": [
        {
          "internalType": "uint256",
          "name": "",
          "type": "uint256"
        }
      ],
      "stateMutability": "view",
      "type": "function"
    },
    {
      "inputs": [],
      "name": "owner",
      "outputs": [
        {
          "internalType": "address",
          "name": "",
          "type": "address"
        }
      ],
      "stateMutability": "view",
      "type": "function"
    },
    {
      "inputs": [],
      "name": "renounceOwnership",
      "outputs": [],
      "stateMutability": "nonpayable",
      "type": "function"
    },
    {
      "inputs": [
        {
          "internalType": "address",
          "name": "newOwner",
          "type": "address"
        }
      ],
      "name": "transferOwnership",
      "outputs": [],
      "stateMutability": "nonpayable",
      "type": "function"
    },
    {
      "inputs": [
        {
          "internalType": "address payable",
          "name": "to",
          "type": "address"
        },
        {
          "internalType": "uint256",
          "name": "amount",
          "type": "uint256"
        }
      ],
      "name": "withdraw",
      "outputs": [],
      "stateMutability": "nonpayable",
      "type": "function"
    },
    {
      "stateMutability": "payable",
      "type": "receive"
    }
  ],
  "bytecode": "0x608060405234801561001057600080fd5b5061002d61002261003260201b60201c565b61003a60201b60201c565b6100fe565b600033905090565b60008060009054906101000a900473ffffffffffffffffffffffffffffffffffffffff169050816000806101000a81548173ffffffffffffffffffffffffffffffffffffffff021916908373ffffffffffffffffffffffffffffffffffffffff1602179055508173ffffffffffffffffffffffffffffffffffffffff168173ffffffffffffffffffffffffffffffffffffffff167f8be0079c531659141344cd1fd0a4f28419497f9722a3daafe3b4186f6b6457e060405160405180910390a35050565b6107a68061010d6000396000f3fe60806040526004361061004e5760003560e01c806312065fe0146100a8578063715018a6146100d35780638da5cb5b146100ea578063f2fde38b14610115578063f3fef3a31461013e576100a3565b366100a3573373ffffffffffffffffffffffffffffffffffffffff167f264f630d9efa0d07053a31163641d9fcc0adafc9d9e76f1c37c2ce3a558d2c52346040516100999190610476565b60405180910390a2005b600080fd5b3480156100b457600080fd5b506100bd610167565b6040516100ca9190610476565b60405180910390f35b3480156100df57600080fd5b506100e861016f565b005b3480156100f657600080fd5b506100ff610183565b60405161010c91906104d2565b60405180910390f35b34801561012157600080fd5b5061013c6004803603810190610137919061051e565b6101ac565b005b34801561014a57600080fd5b50610165600480360381019061016091906105b5565b61022f565b005b600047905090565b610177610313565b6101816000610391565b565b60008060009054906101000a900473ffffffffffffffffffffffffffffffffffffffff16905090565b6101b4610313565b600073ffffffffffffffffffffffffffffffffffffffff168173ffffffffffffffffffffffffffffffffffffffff1603610223576040517f08c379a000000000000000000000000000000000000000000000000000000000815260040161021a90610678565b60405180910390fd5b61022c81610391565b50565b610237610313565b8047101561027a576040517f08c379a0000000000000000000000000000000000000000000000000000000008152600401610271906106e4565b60405180910390fd5b8173ffffffffffffffffffffffffffffffffffffffff166108fc829081150290604051600060405180830381858888f193505050501580156102c0573d6000803e3d6000fd5b508173ffffffffffffffffffffffffffffffffffffffff167f7fcf532c15f0a6db0bd6d0e038bea71d30d808c7d98cb3bf7268a95bf5081b65826040516103079190610476565b60405180910390a25050565b61031b610455565b73ffffffffffffffffffffffffffffffffffffffff16610339610183565b73ffffffffffffffffffffffffffffffffffffffff161461038f576040517f08c379a000000000000000000000000000000000000000000000000000000000815260040161038690610750565b60405180910390fd5b565b60008060009054906101000a900473ffffffffffffffffffffffffffffffffffffffff169050816000806101000a81548173ffffffffffffffffffffffffffffffffffffffff021916908373ffffffffffffffffffffffffffffffffffffffff1602179055508173ffffffffffffffffffffffffffffffffffffffff168173ffffffffffffffffffffffffffffffffffffffff167f8be0079c531659141344cd1fd0a4f28419497f9722a3daafe3b4186f6b6457e060405160405180910390a35050565b600033905090565b6000819050919050565b6104708161045d565b82525050565b600060208201905061048b6000830184610467565b92915050565b600073ffffffffffffffffffffffffffffffffffffffff82169050919050565b60006104bc82610491565b9050919050565b6104cc816104b1565b82525050565b60006020820190506104e760008301846104c3565b92915050565b600080fd5b6104fb816104b1565b811461050657600080fd5b50565b600081359050610518816104f2565b92915050565b600060208284031215610534576105336104ed565b5b600061054284828501610509565b91505092915050565b600061055682610491565b9050919050565b6105668161054b565b811461057157600080fd5b50565b6000813590506105838161055d565b92915050565b6105928161045d565b811461059d57600080fd5b50565b6000813590506105af81610589565b92915050565b600080604083850312156105cc576105cb6104ed565b5b60006105da85828601610574565b92505060206105eb858286016105a0565b9150509250929050565b600082825260208201905092915050565b7f4f776e61626c653a206e6577206f776e657220697320746865207a65726f206160008201527f6464726573730000000000000000000000000000000000000000000000000000602082015250565b60006106626026836105f5565b915061066d82610606565b604082019050919050565b6000602082019050818103600083015261069181610655565b9050919050565b7f4e6f7420656e6f7567682062616c616e63650000000000000000000000000000600082015250565b60006106ce6012836105f5565b91506106d982610698565b602082019050919050565b600060208201905081810360008301526106fd816106c1565b9050919050565b7f4f776e61626c653a2063616c6c6572206973206e6f7420746865206f776e6572600082015250565b600061073a6020836105f5565b915061074582610704565b602082019050919050565b600060208201905081810360008301526107698161072d565b905091905056fea2646970667358221220df382ddaffd915ab1b69fa686f620852a4f5669028746a93389074d8f7a7a61864736f6c63430008110033",
  "linkReferences": {},
  "deployedLinkReferences": {}
}