{
  "_format": "hh-sol-artifact-1",
  "contractName": "User",
  "sourceName": "contracts/User.sol",
  "abi": [
    {
      "anonymous": false,
      "inputs": [
        {
          "indexed": true,
          "internalType": "address",
          "name": "previousOwner",
          "type": "address"
        },
        {
          "indexed": true,
          "internalType": "address",
          "name": "newOwner",
          "type": "address"
        }
      ],
      "name": "OwnershipTransferred",
      "type": "event"
    },
    {
      "inputs": [
        {
          "internalType": "uint256",
          "name": "userId",
          "type": "uint256"
        }
      ],
      "name": "getUserById",
      "outputs": [
        {
          "components": [
            {
              "internalType": "string",
              "name": "firstName",
              "type": "string"
            },
            {
              "internalType": "string",
              "name": "lastName",
              "type": "string"
            },
            {
              "internalType": "uint256",
              "name": "amountSpent",
              "type": "uint256"
            },
            {
              "internalType": "uint256",
              "name": "userId",
              "type": "uint256"
            }
          ],
          "internalType": "struct User.User",
          "name": "",
          "type": "tuple"
        }
      ],
      "stateMutability": "view",
      "type": "function"
    },
    {
      "inputs": [],
      "name": "getUsers",
      "outputs": [
        {
          "components": [
            {
              "internalType": "string",
              "name": "firstName",
              "type": "string"
            },
            {
              "internalType": "string",
              "name": "lastName",
              "type": "string"
            },
            {
              "internalType": "uint256",
              "name": "amountSpent",
              "type": "uint256"
            },
            {
              "internalType": "uint256",
              "name": "userId",
              "type": "uint256"
            }
          ],
          "internalType": "struct User.User[]",
          "name": "",
          "type": "tuple[]"
        }
      ],
      "stateMutability": "view",
      "type": "function"
    },
    {
      "inputs": [
        {
          "internalType": "string",
          "name": "firstName",
          "type": "string"
        },
        {
          "internalType": "string",
          "name": "lastName",
          "type": "string"
        }
      ],
      "name": "insertUser",
      "outputs": [
        {
          "internalType": "uint256",
          "name": "",
          "type": "uint256"
        }
      ],
      "stateMutability": "nonpayable",
      "type": "function"
    },
    {
      "inputs": [],
      "name": "owner",
      "outputs": [
        {
          "internalType": "address",
          "name": "",
          "type": "address"
        }
      ],
      "stateMutability": "view",
      "type": "function"
    },
    {
      "inputs": [
        {
          "internalType": "uint256",
          "name": "userId",
          "type": "uint256"
        },
        {
          "internalType": "uint256",
          "name": "amount",
          "type": "uint256"
        }
      ],
      "name": "registerSale",
      "outputs": [],
      "stateMutability": "nonpayable",
      "type": "function"
    },
    {
      "inputs": [],
      "name": "renounceOwnership",
      "outputs": [],
      "stateMutability": "nonpayable",
      "type": "function"
    },
    {
      "inputs": [
        {
          "internalType": "address",
          "name": "newOwner",
          "type": "address"
        }
      ],
      "name": "transferOwnership",
      "outputs": [],
      "stateMutability": "nonpayable",
      "type": "function"
    },
    {
      "inputs": [
        {
          "internalType": "uint256",
          "name": "",
          "type": "uint256"
        }
      ],
      "name": "users",
      "outputs": [
        {
          "internalType": "string",
          "name": "firstName",
          "type": "string"
        },
        {
          "internalType": "string",
          "name": "lastName",
          "type": "string"
        },
        {
          "internalType": "uint256",
          "name": "amountSpent",
          "type": "uint256"
        },
        {
          "internalType": "uint256",
          "name": "userId",
          "type": "uint256"
        }
      ],
      "stateMutability": "view",
      "type": "function"
    }
  ],
  "bytecode": "0x608060405234801561001057600080fd5b5061002d61002261003260201b60201c565b61003a60201b60201c565b6100fe565b600033905090565b60008060009054906101000a900473ffffffffffffffffffffffffffffffffffffffff169050816000806101000a81548173ffffffffffffffffffffffffffffffffffffffff021916908373ffffffffffffffffffffffffffffffffffffffff1602179055508173ffffffffffffffffffffffffffffffffffffffff168173ffffffffffffffffffffffffffffffffffffffff167f8be0079c531659141344cd1fd0a4f28419497f9722a3daafe3b4186f6b6457e060405160405180910390a35050565b6113398061010d6000396000f3fe608060405234801561001057600080fd5b50600436106100875760003560e01c8063715018a61161005b578063715018a61461013d5780638da5cb5b14610147578063c5b7fc7514610165578063f2fde38b1461018157610087565b8062ce8e3e1461008c57806334979627146100aa578063365b98b2146100da5780636ed6da9e1461010d575b600080fd5b61009461019d565b6040516100a19190610c23565b60405180910390f35b6100c460048036038101906100bf9190610d8e565b6103b5565b6040516100d19190610e15565b60405180910390f35b6100f460048036038101906100ef9190610e5c565b61046d565b6040516101049493929190610ed3565b60405180910390f35b61012760048036038101906101229190610e5c565b6105ad565b6040516101349190610f90565b60405180910390f35b610145610712565b005b61014f610726565b60405161015c9190610ff3565b60405180910390f35b61017f600480360381019061017a919061100e565b61074f565b005b61019b6004803603810190610196919061107a565b610788565b005b606060006101ab600161080c565b67ffffffffffffffff8111156101c4576101c3610c63565b5b6040519080825280602002602001820160405280156101fd57816020015b6101ea61097a565b8152602001906001900390816101e25790505b50905060005b61020d600161080c565b8110156103ad5760006002600060018461022791906110d6565b81526020019081526020016000209050806040518060800160405290816000820180546102539061115b565b80601f016020809104026020016040519081016040528092919081815260200182805461027f9061115b565b80156102cc5780601f106102a1576101008083540402835291602001916102cc565b820191906000526020600020905b8154815290600101906020018083116102af57829003601f168201915b505050505081526020016001820180546102e59061115b565b80601f01602080910402602001604051908101604052809291908181526020018280546103119061115b565b801561035e5780601f106103335761010080835404028352916020019161035e565b820191906000526020600020905b81548152906001019060200180831161034157829003601f168201915b505050505081526020016002820154815260200160038201548152505083838151811061038e5761038d61118d565b5b60200260200101819052505080806103a5906111bc565b915050610203565b508091505090565b60006103bf61081a565b6103c96001610898565b60006103d5600161080c565b905060006040518060800160405280868152602001858152602001600081526020018381525090508060026000848152602001908152602001600020600082015181600001908051906020019061042d9291906109a2565b50602082015181600101908051906020019061044a9291906109a2565b506040820151816002015560608201518160030155905050819250505092915050565b60026020528060005260406000206000915090508060000180546104909061115b565b80601f01602080910402602001604051908101604052809291908181526020018280546104bc9061115b565b80156105095780601f106104de57610100808354040283529160200191610509565b820191906000526020600020905b8154815290600101906020018083116104ec57829003601f168201915b50505050509080600101805461051e9061115b565b80601f016020809104026020016040519081016040528092919081815260200182805461054a9061115b565b80156105975780601f1061056c57610100808354040283529160200191610597565b820191906000526020600020905b81548152906001019060200180831161057a57829003601f168201915b5050505050908060020154908060030154905084565b6105b561097a565b600260008381526020019081526020016000206040518060800160405290816000820180546105e39061115b565b80601f016020809104026020016040519081016040528092919081815260200182805461060f9061115b565b801561065c5780601f106106315761010080835404028352916020019161065c565b820191906000526020600020905b81548152906001019060200180831161063f57829003601f168201915b505050505081526020016001820180546106759061115b565b80601f01602080910402602001604051908101604052809291908181526020018280546106a19061115b565b80156106ee5780601f106106c3576101008083540402835291602001916106ee565b820191906000526020600020905b8154815290600101906020018083116106d157829003601f168201915b50505050508152602001600282015481526020016003820154815250509050919050565b61071a61081a565b61072460006108ae565b565b60008060009054906101000a900473ffffffffffffffffffffffffffffffffffffffff16905090565b61075761081a565b8060026000848152602001908152602001600020600201600082825461077d91906110d6565b925050819055505050565b61079061081a565b600073ffffffffffffffffffffffffffffffffffffffff168173ffffffffffffffffffffffffffffffffffffffff161415610800576040517f08c379a00000000000000000000000000000000000000000000000000000000081526004016107f790611277565b60405180910390fd5b610809816108ae565b50565b600081600001549050919050565b610822610972565b73ffffffffffffffffffffffffffffffffffffffff16610840610726565b73ffffffffffffffffffffffffffffffffffffffff1614610896576040517f08c379a000000000000000000000000000000000000000000000000000000000815260040161088d906112e3565b60405180910390fd5b565b6001816000016000828254019250508190555050565b60008060009054906101000a900473ffffffffffffffffffffffffffffffffffffffff169050816000806101000a81548173ffffffffffffffffffffffffffffffffffffffff021916908373ffffffffffffffffffffffffffffffffffffffff1602179055508173ffffffffffffffffffffffffffffffffffffffff168173ffffffffffffffffffffffffffffffffffffffff167f8be0079c531659141344cd1fd0a4f28419497f9722a3daafe3b4186f6b6457e060405160405180910390a35050565b600033905090565b6040518060800160405280606081526020016060815260200160008152602001600081525090565b8280546109ae9061115b565b90600052602060002090601f0160209004810192826109d05760008555610a17565b82601f106109e957805160ff1916838001178555610a17565b82800160010185558215610a17579182015b82811115610a165782518255916020019190600101906109fb565b5b509050610a249190610a28565b5090565b5b80821115610a41576000816000905550600101610a29565b5090565b600081519050919050565b600082825260208201905092915050565b6000819050602082019050919050565b600081519050919050565b600082825260208201905092915050565b60005b83811015610aab578082015181840152602081019050610a90565b83811115610aba576000848401525b50505050565b6000601f19601f8301169050919050565b6000610adc82610a71565b610ae68185610a7c565b9350610af6818560208601610a8d565b610aff81610ac0565b840191505092915050565b6000819050919050565b610b1d81610b0a565b82525050565b60006080830160008301518482036000860152610b408282610ad1565b91505060208301518482036020860152610b5a8282610ad1565b9150506040830151610b6f6040860182610b14565b506060830151610b826060860182610b14565b508091505092915050565b6000610b998383610b23565b905092915050565b6000602082019050919050565b6000610bb982610a45565b610bc38185610a50565b935083602082028501610bd585610a61565b8060005b85811015610c115784840389528151610bf28582610b8d565b9450610bfd83610ba1565b925060208a01995050600181019050610bd9565b50829750879550505050505092915050565b60006020820190508181036000830152610c3d8184610bae565b905092915050565b6000604051905090565b600080fd5b600080fd5b600080fd5b600080fd5b7f4e487b7100000000000000000000000000000000000000000000000000000000600052604160045260246000fd5b610c9b82610ac0565b810181811067ffffffffffffffff82111715610cba57610cb9610c63565b5b80604052505050565b6000610ccd610c45565b9050610cd98282610c92565b919050565b600067ffffffffffffffff821115610cf957610cf8610c63565b5b610d0282610ac0565b9050602081019050919050565b82818337600083830152505050565b6000610d31610d2c84610cde565b610cc3565b905082815260208101848484011115610d4d57610d4c610c5e565b5b610d58848285610d0f565b509392505050565b600082601f830112610d7557610d74610c59565b5b8135610d85848260208601610d1e565b91505092915050565b60008060408385031215610da557610da4610c4f565b5b600083013567ffffffffffffffff811115610dc357610dc2610c54565b5b610dcf85828601610d60565b925050602083013567ffffffffffffffff811115610df057610def610c54565b5b610dfc85828601610d60565b9150509250929050565b610e0f81610b0a565b82525050565b6000602082019050610e2a6000830184610e06565b92915050565b610e3981610b0a565b8114610e4457600080fd5b50565b600081359050610e5681610e30565b92915050565b600060208284031215610e7257610e71610c4f565b5b6000610e8084828501610e47565b91505092915050565b600082825260208201905092915050565b6000610ea582610a71565b610eaf8185610e89565b9350610ebf818560208601610a8d565b610ec881610ac0565b840191505092915050565b60006080820190508181036000830152610eed8187610e9a565b90508181036020830152610f018186610e9a565b9050610f106040830185610e06565b610f1d6060830184610e06565b95945050505050565b60006080830160008301518482036000860152610f438282610ad1565b91505060208301518482036020860152610f5d8282610ad1565b9150506040830151610f726040860182610b14565b506060830151610f856060860182610b14565b508091505092915050565b60006020820190508181036000830152610faa8184610f26565b905092915050565b600073ffffffffffffffffffffffffffffffffffffffff82169050919050565b6000610fdd82610fb2565b9050919050565b610fed81610fd2565b82525050565b60006020820190506110086000830184610fe4565b92915050565b6000806040838503121561102557611024610c4f565b5b600061103385828601610e47565b925050602061104485828601610e47565b9150509250929050565b61105781610fd2565b811461106257600080fd5b50565b6000813590506110748161104e565b92915050565b6000602082840312156110905761108f610c4f565b5b600061109e84828501611065565b91505092915050565b7f4e487b7100000000000000000000000000000000000000000000000000000000600052601160045260246000fd5b60006110e182610b0a565b91506110ec83610b0a565b9250827fffffffffffffffffffffffffffffffffffffffffffffffffffffffffffffffff03821115611121576111206110a7565b5b828201905092915050565b7f4e487b7100000000000000000000000000000000000000000000000000000000600052602260045260246000fd5b6000600282049050600182168061117357607f821691505b602082108114156111875761118661112c565b5b50919050565b7f4e487b7100000000000000000000000000000000000000000000000000000000600052603260045260246000fd5b60006111c782610b0a565b91507fffffffffffffffffffffffffffffffffffffffffffffffffffffffffffffffff8214156111fa576111f96110a7565b5b600182019050919050565b7f4f776e61626c653a206e6577206f776e657220697320746865207a65726f206160008201527f6464726573730000000000000000000000000000000000000000000000000000602082015250565b6000611261602683610e89565b915061126c82611205565b604082019050919050565b6000602082019050818103600083015261129081611254565b9050919050565b7f4f776e61626c653a2063616c6c6572206973206e6f7420746865206f776e6572600082015250565b60006112cd602083610e89565b91506112d882611297565b602082019050919050565b600060208201905081810360008301526112fc816112c0565b905091905056fea2646970667358221220dd5f50226f3f41a4574d71fad69817e5e6f96a43edd348959529c5778b16b60364736f6c63430008090033",
  "linkReferences": {},
  "deployedLinkReferences": {}
}