{
  "_format": "hh-sol-artifact-1",
  "contractName": "WalletMultiSig",
  "sourceName": "contracts/Wallet.sol",
  "abi": [
    {
      "inputs": [
        {
          "internalType": "address[]",
          "name": "_owners",
          "type": "address[]"
        },
        {
          "internalType": "uint256",
          "name": "_requiredApprovals",
          "type": "uint256"
        }
      ],
      "stateMutability": "nonpayable",
      "type": "constructor"
    },
    {
      "anonymous": false,
      "inputs": [
        {
          "indexed": true,
          "internalType": "address",
          "name": "sender",
          "type": "address"
        },
        {
          "indexed": false,
          "internalType": "uint256",
          "name": "amount",
          "type": "uint256"
        }
      ],
      "name": "Deposit",
      "type": "event"
    },
    {
      "inputs": [
        {
          "internalType": "uint256",
          "name": "",
          "type": "uint256"
        },
        {
          "internalType": "address",
          "name": "",
          "type": "address"
        }
      ],
      "name": "approvals",
      "outputs": [
        {
          "internalType": "bool",
          "name": "",
          "type": "bool"
        }
      ],
      "stateMutability": "view",
      "type": "function"
    },
    {
      "inputs": [
        {
          "internalType": "uint256",
          "name": "_transactionId",
          "type": "uint256"
        }
      ],
      "name": "approveTransaction",
      "outputs": [],
      "stateMutability": "nonpayable",
      "type": "function"
    },
    {
      "inputs": [],
      "name": "deposit",
      "outputs": [],
      "stateMutability": "payable",
      "type": "function"
    },
    {
      "inputs": [
        {
          "internalType": "uint256",
          "name": "_transactionId",
          "type": "uint256"
        }
      ],
      "name": "executeTransaction",
      "outputs": [],
      "stateMutability": "nonpayable",
      "type": "function"
    },
    {
      "inputs": [],
      "name": "getTransactions",
      "outputs": [
        {
          "components": [
            {
              "internalType": "address",
              "name": "to",
              "type": "address"
            },
            {
              "internalType": "uint256",
              "name": "amount",
              "type": "uint256"
            },
            {
              "internalType": "uint256",
              "name": "approvalCount",
              "type": "uint256"
            },
            {
              "internalType": "bool",
              "name": "executed",
              "type": "bool"
            }
          ],
          "internalType": "struct WalletMultiSig.Transaction[]",
          "name": "",
          "type": "tuple[]"
        }
      ],
      "stateMutability": "view",
      "type": "function"
    },
    {
      "inputs": [
        {
          "internalType": "address",
          "name": "",
          "type": "address"
        }
      ],
      "name": "isOwner",
      "outputs": [
        {
          "internalType": "bool",
          "name": "",
          "type": "bool"
        }
      ],
      "stateMutability": "view",
      "type": "function"
    },
    {
      "inputs": [
        {
          "internalType": "uint256",
          "name": "",
          "type": "uint256"
        }
      ],
      "name": "owners",
      "outputs": [
        {
          "internalType": "address",
          "name": "",
          "type": "address"
        }
      ],
      "stateMutability": "view",
      "type": "function"
    },
    {
      "inputs": [],
      "name": "requiredApprovals",
      "outputs": [
        {
          "internalType": "uint256",
          "name": "",
          "type": "uint256"
        }
      ],
      "stateMutability": "view",
      "type": "function"
    },
    {
      "inputs": [
        {
          "internalType": "address",
          "name": "_to",
          "type": "address"
        },
        {
          "internalType": "uint256",
          "name": "amount",
          "type": "uint256"
        }
      ],
      "name": "submitTransaction",
      "outputs": [],
      "stateMutability": "nonpayable",
      "type": "function"
    },
    {
      "inputs": [
        {
          "internalType": "uint256",
          "name": "",
          "type": "uint256"
        }
      ],
      "name": "transactions",
      "outputs": [
        {
          "internalType": "address",
          "name": "to",
          "type": "address"
        },
        {
          "internalType": "uint256",
          "name": "amount",
          "type": "uint256"
        },
        {
          "internalType": "uint256",
          "name": "approvalCount",
          "type": "uint256"
        },
        {
          "internalType": "bool",
          "name": "executed",
          "type": "bool"
        }
      ],
      "stateMutability": "view",
      "type": "function"
    }
  ],
  "bytecode": "0x60806040523480156200001157600080fd5b50604051620018203803806200182083398181016040528101906200003791906200046a565b60008251116200007e576040517f08c379a0000000000000000000000000000000000000000000000000000000008152600401620000759062000531565b60405180910390fd5b60008111801562000090575081518111155b620000d2576040517f08c379a0000000000000000000000000000000000000000000000000000000008152600401620000c99062000615565b60405180910390fd5b60005b82518110156200016a57600160026000858481518110620000fb57620000fa62000637565b5b602002602001015173ffffffffffffffffffffffffffffffffffffffff1673ffffffffffffffffffffffffffffffffffffffff16815260200190815260200160002060006101000a81548160ff0219169083151502179055508080620001619062000695565b915050620000d5565b5081600090805190602001906200018392919062000193565b50806001819055505050620006e3565b8280548282559060005260206000209081019282156200020f579160200282015b828111156200020e5782518260006101000a81548173ffffffffffffffffffffffffffffffffffffffff021916908373ffffffffffffffffffffffffffffffffffffffff16021790555091602001919060010190620001b4565b5b5090506200021e919062000222565b5090565b5b808211156200023d57600081600090555060010162000223565b5090565b6000604051905090565b600080fd5b600080fd5b600080fd5b6000601f19601f8301169050919050565b7f4e487b7100000000000000000000000000000000000000000000000000000000600052604160045260246000fd5b620002a5826200025a565b810181811067ffffffffffffffff82111715620002c757620002c66200026b565b5b80604052505050565b6000620002dc62000241565b9050620002ea82826200029a565b919050565b600067ffffffffffffffff8211156200030d576200030c6200026b565b5b602082029050602081019050919050565b600080fd5b600073ffffffffffffffffffffffffffffffffffffffff82169050919050565b6000620003508262000323565b9050919050565b620003628162000343565b81146200036e57600080fd5b50565b600081519050620003828162000357565b92915050565b60006200039f6200039984620002ef565b620002d0565b90508083825260208201905060208402830185811115620003c557620003c46200031e565b5b835b81811015620003f25780620003dd888262000371565b845260208401935050602081019050620003c7565b5050509392505050565b600082601f83011262000414576200041362000255565b5b81516200042684826020860162000388565b91505092915050565b6000819050919050565b62000444816200042f565b81146200045057600080fd5b50565b600081519050620004648162000439565b92915050565b600080604083850312156200048457620004836200024b565b5b600083015167ffffffffffffffff811115620004a557620004a462000250565b5b620004b385828601620003fc565b9250506020620004c68582860162000453565b9150509250929050565b600082825260208201905092915050565b7f44656265732074656e6572206f776e6572730000000000000000000000000000600082015250565b600062000519601283620004d0565b91506200052682620004e1565b602082019050919050565b600060208201905081810360008301526200054c816200050a565b9050919050565b7f456c206e756d65726f206465206170726f626163696f6e65732072657175657260008201527f69646173206465626520736572206d61796f72206120302079206d656e6f722060208201527f6f20696775616c20616c206e756d65726f2064652070726f706965746172696f60408201527f7300000000000000000000000000000000000000000000000000000000000000606082015250565b6000620005fd606183620004d0565b91506200060a8262000553565b608082019050919050565b600060208201905081810360008301526200063081620005ee565b9050919050565b7f4e487b7100000000000000000000000000000000000000000000000000000000600052603260045260246000fd5b7f4e487b7100000000000000000000000000000000000000000000000000000000600052601160045260246000fd5b6000620006a2826200042f565b91507fffffffffffffffffffffffffffffffffffffffffffffffffffffffffffffffff821415620006d857620006d762000666565b5b600182019050919050565b61112d80620006f36000396000f3fe6080604052600436106100915760003560e01c806399c1aadc1161005957806399c1aadc1461018d5780639ace38c2146101b8578063ab2850da146101f8578063d0e30db014610235578063ee22610b1461023f57610091565b8063025e7c27146100965780631d43b653146100d3578063242232d1146100fc5780632f54bf6e1461012557806383920e9014610162575b600080fd5b3480156100a257600080fd5b506100bd60048036038101906100b89190610a96565b610268565b6040516100ca9190610b04565b60405180910390f35b3480156100df57600080fd5b506100fa60048036038101906100f59190610b4b565b6102a7565b005b34801561010857600080fd5b50610123600480360381019061011e9190610a96565b61041a565b005b34801561013157600080fd5b5061014c60048036038101906101479190610b8b565b610645565b6040516101599190610bd3565b60405180910390f35b34801561016e57600080fd5b50610177610665565b6040516101849190610d1f565b60405180910390f35b34801561019957600080fd5b506101a2610749565b6040516101af9190610d50565b60405180910390f35b3480156101c457600080fd5b506101df60048036038101906101da9190610a96565b61074f565b6040516101ef9493929190610d6b565b60405180910390f35b34801561020457600080fd5b5061021f600480360381019061021a9190610db0565b6107bc565b60405161022c9190610bd3565b60405180910390f35b61023d6107eb565b005b34801561024b57600080fd5b5061026660048036038101906102619190610a96565b61087e565b005b6000818154811061027857600080fd5b906000526020600020016000915054906101000a900473ffffffffffffffffffffffffffffffffffffffff1681565b600260003373ffffffffffffffffffffffffffffffffffffffff1673ffffffffffffffffffffffffffffffffffffffff16815260200190815260200160002060009054906101000a900460ff16610333576040517f08c379a000000000000000000000000000000000000000000000000000000000815260040161032a90610e4d565b60405180910390fd5b600360405180608001604052808473ffffffffffffffffffffffffffffffffffffffff1681526020018381526020016000815260200160001515815250908060018154018082558091505060019003906000526020600020906004020160009091909190915060008201518160000160006101000a81548173ffffffffffffffffffffffffffffffffffffffff021916908373ffffffffffffffffffffffffffffffffffffffff160217905550602082015181600101556040820151816002015560608201518160030160006101000a81548160ff02191690831515021790555050505050565b600260003373ffffffffffffffffffffffffffffffffffffffff1673ffffffffffffffffffffffffffffffffffffffff16815260200190815260200160002060009054906101000a900460ff166104a6576040517f08c379a000000000000000000000000000000000000000000000000000000000815260040161049d90610e4d565b60405180910390fd5b6000600382815481106104bc576104bb610e6d565b5b906000526020600020906004020190508060030160009054906101000a900460ff161561051e576040517f08c379a000000000000000000000000000000000000000000000000000000000815260040161051590610ee8565b60405180910390fd5b6004600083815260200190815260200160002060003373ffffffffffffffffffffffffffffffffffffffff1673ffffffffffffffffffffffffffffffffffffffff16815260200190815260200160002060009054906101000a900460ff16156105bc576040517f08c379a00000000000000000000000000000000000000000000000000000000081526004016105b390610f54565b60405180910390fd5b60016004600084815260200190815260200160002060003373ffffffffffffffffffffffffffffffffffffffff1673ffffffffffffffffffffffffffffffffffffffff16815260200190815260200160002060006101000a81548160ff021916908315150217905550600181600201600082825461063a9190610fa3565b925050819055505050565b60026020528060005260406000206000915054906101000a900460ff1681565b60606003805480602002602001604051908101604052809291908181526020016000905b8282101561074057838290600052602060002090600402016040518060800160405290816000820160009054906101000a900473ffffffffffffffffffffffffffffffffffffffff1673ffffffffffffffffffffffffffffffffffffffff1673ffffffffffffffffffffffffffffffffffffffff16815260200160018201548152602001600282015481526020016003820160009054906101000a900460ff16151515158152505081526020019060010190610689565b50505050905090565b60015481565b6003818154811061075f57600080fd5b90600052602060002090600402016000915090508060000160009054906101000a900473ffffffffffffffffffffffffffffffffffffffff16908060010154908060020154908060030160009054906101000a900460ff16905084565b60046020528160005260406000206020528060005260406000206000915091509054906101000a900460ff1681565b6000341161082e576040517f08c379a000000000000000000000000000000000000000000000000000000000815260040161082590611045565b60405180910390fd5b3373ffffffffffffffffffffffffffffffffffffffff167fe1fffcc4923d04b559f4d29a8bfc6cda04eb5b0d3c460751c2402c5c5cc9109c346040516108749190610d50565b60405180910390a2565b600260003373ffffffffffffffffffffffffffffffffffffffff1673ffffffffffffffffffffffffffffffffffffffff16815260200190815260200160002060009054906101000a900460ff1661090a576040517f08c379a000000000000000000000000000000000000000000000000000000000815260040161090190610e4d565b60405180910390fd5b6000600382815481106109205761091f610e6d565b5b9060005260206000209060040201905060015481600201541015610979576040517f08c379a0000000000000000000000000000000000000000000000000000000008152600401610970906110d7565b60405180910390fd5b8060030160009054906101000a900460ff16156109cb576040517f08c379a00000000000000000000000000000000000000000000000000000000081526004016109c290610ee8565b60405180910390fd5b60018160030160006101000a81548160ff0219169083151502179055508060000160009054906101000a900473ffffffffffffffffffffffffffffffffffffffff1673ffffffffffffffffffffffffffffffffffffffff166108fc82600101549081150290604051600060405180830381858888f19350505050158015610a56573d6000803e3d6000fd5b505050565b600080fd5b6000819050919050565b610a7381610a60565b8114610a7e57600080fd5b50565b600081359050610a9081610a6a565b92915050565b600060208284031215610aac57610aab610a5b565b5b6000610aba84828501610a81565b91505092915050565b600073ffffffffffffffffffffffffffffffffffffffff82169050919050565b6000610aee82610ac3565b9050919050565b610afe81610ae3565b82525050565b6000602082019050610b196000830184610af5565b92915050565b610b2881610ae3565b8114610b3357600080fd5b50565b600081359050610b4581610b1f565b92915050565b60008060408385031215610b6257610b61610a5b565b5b6000610b7085828601610b36565b9250506020610b8185828601610a81565b9150509250929050565b600060208284031215610ba157610ba0610a5b565b5b6000610baf84828501610b36565b91505092915050565b60008115159050919050565b610bcd81610bb8565b82525050565b6000602082019050610be86000830184610bc4565b92915050565b600081519050919050565b600082825260208201905092915050565b6000819050602082019050919050565b610c2381610ae3565b82525050565b610c3281610a60565b82525050565b610c4181610bb8565b82525050565b608082016000820151610c5d6000850182610c1a565b506020820151610c706020850182610c29565b506040820151610c836040850182610c29565b506060820151610c966060850182610c38565b50505050565b6000610ca88383610c47565b60808301905092915050565b6000602082019050919050565b6000610ccc82610bee565b610cd68185610bf9565b9350610ce183610c0a565b8060005b83811015610d12578151610cf98882610c9c565b9750610d0483610cb4565b925050600181019050610ce5565b5085935050505092915050565b60006020820190508181036000830152610d398184610cc1565b905092915050565b610d4a81610a60565b82525050565b6000602082019050610d656000830184610d41565b92915050565b6000608082019050610d806000830187610af5565b610d8d6020830186610d41565b610d9a6040830185610d41565b610da76060830184610bc4565b95945050505050565b60008060408385031215610dc757610dc6610a5b565b5b6000610dd585828601610a81565b9250506020610de685828601610b36565b9150509250929050565b600082825260208201905092915050565b7f4e6f206573206f776e6572000000000000000000000000000000000000000000600082015250565b6000610e37600b83610df0565b9150610e4282610e01565b602082019050919050565b60006020820190508181036000830152610e6681610e2a565b9050919050565b7f4e487b7100000000000000000000000000000000000000000000000000000000600052603260045260246000fd5b7f4c61207472616e73616363696f6e2079612066756520656a6563757461646100600082015250565b6000610ed2601f83610df0565b9150610edd82610e9c565b602082019050919050565b60006020820190508181036000830152610f0181610ec5565b9050919050565b7f596120686173206170726f6261646f2065737461207472616e73616363696f6e600082015250565b6000610f3e602083610df0565b9150610f4982610f08565b602082019050919050565b60006020820190508181036000830152610f6d81610f31565b9050919050565b7f4e487b7100000000000000000000000000000000000000000000000000000000600052601160045260246000fd5b6000610fae82610a60565b9150610fb983610a60565b9250827fffffffffffffffffffffffffffffffffffffffffffffffffffffffffffffffff03821115610fee57610fed610f74565b5b828201905092915050565b7f456c206465706f7369746f206465626520736572206d61796f72206120300000600082015250565b600061102f601e83610df0565b915061103a82610ff9565b602082019050919050565b6000602082019050818103600083015261105e81611022565b9050919050565b7f4e6f2073652068616e206170726f6261646f20737566696369656e746573207460008201527f72616e73616363696f6e65730000000000000000000000000000000000000000602082015250565b60006110c1602c83610df0565b91506110cc82611065565b604082019050919050565b600060208201905081810360008301526110f0816110b4565b905091905056fea264697066735822122031172227aa7b7736b9fc0675d61a93d3ac67e3701f2fb00d38be5bc3ba72f64f64736f6c63430008090033",
  "linkReferences": {},
  "deployedLinkReferences": {}
}