{
  "_format": "hh-sol-artifact-1",
  "contractName": "NFTAuction",
  "sourceName": "contracts/NFTAuction.sol",
  "abi": [
    {
      "inputs": [
        {
          "internalType": "address",
          "name": "_nftContractAddress",
          "type": "address"
        }
      ],
      "stateMutability": "nonpayable",
      "type": "constructor"
    },
    {
      "anonymous": false,
      "inputs": [
        {
          "indexed": true,
          "internalType": "address",
          "name": "seller",
          "type": "address"
        },
        {
          "indexed": true,
          "internalType": "uint256",
          "name": "tokenId",
          "type": "uint256"
        },
        {
          "indexed": false,
          "internalType": "uint256",
          "name": "endTime",
          "type": "uint256"
        },
        {
          "indexed": false,
          "internalType": "string",
          "name": "tokenURI",
          "type": "string"
        }
      ],
      "name": "AuctionCreated",
      "type": "event"
    },
    {
      "anonymous": false,
      "inputs": [
        {
          "indexed": false,
          "internalType": "address",
          "name": "winner",
          "type": "address"
        },
        {
          "indexed": false,
          "internalType": "uint256",
          "name": "amount",
          "type": "uint256"
        },
        {
          "indexed": true,
          "internalType": "uint256",
          "name": "tokenId",
          "type": "uint256"
        }
      ],
      "name": "AuctionEnded",
      "type": "event"
    },
    {
      "anonymous": false,
      "inputs": [
        {
          "indexed": true,
          "internalType": "address",
          "name": "bidder",
          "type": "address"
        },
        {
          "indexed": false,
          "internalType": "uint256",
          "name": "amount",
          "type": "uint256"
        },
        {
          "indexed": true,
          "internalType": "uint256",
          "name": "tokenId",
          "type": "uint256"
        }
      ],
      "name": "HighestBidIncreased",
      "type": "event"
    },
    {
      "anonymous": false,
      "inputs": [
        {
          "indexed": true,
          "internalType": "address",
          "name": "previousOwner",
          "type": "address"
        },
        {
          "indexed": true,
          "internalType": "address",
          "name": "newOwner",
          "type": "address"
        }
      ],
      "name": "OwnershipTransferred",
      "type": "event"
    },
    {
      "inputs": [
        {
          "internalType": "uint256",
          "name": "",
          "type": "uint256"
        }
      ],
      "name": "activeAuctions",
      "outputs": [
        {
          "internalType": "uint256",
          "name": "",
          "type": "uint256"
        }
      ],
      "stateMutability": "view",
      "type": "function"
    },
    {
      "inputs": [
        {
          "internalType": "uint256",
          "name": "",
          "type": "uint256"
        }
      ],
      "name": "auctions",
      "outputs": [
        {
          "internalType": "address",
          "name": "seller",
          "type": "address"
        },
        {
          "internalType": "address",
          "name": "highestBidder",
          "type": "address"
        },
        {
          "internalType": "uint256",
          "name": "highestBid",
          "type": "uint256"
        },
        {
          "internalType": "uint256",
          "name": "endTime",
          "type": "uint256"
        },
        {
          "internalType": "uint256",
          "name": "tokenId",
          "type": "uint256"
        },
        {
          "internalType": "bool",
          "name": "ended",
          "type": "bool"
        },
        {
          "internalType": "string",
          "name": "tokenURI",
          "type": "string"
        }
      ],
      "stateMutability": "view",
      "type": "function"
    },
    {
      "inputs": [
        {
          "internalType": "uint256",
          "name": "_tokenId",
          "type": "uint256"
        }
      ],
      "name": "bid",
      "outputs": [],
      "stateMutability": "payable",
      "type": "function"
    },
    {
      "inputs": [
        {
          "internalType": "uint256",
          "name": "_tokenId",
          "type": "uint256"
        },
        {
          "internalType": "uint256",
          "name": "_duration",
          "type": "uint256"
        },
        {
          "internalType": "string",
          "name": "_tokenURI",
          "type": "string"
        }
      ],
      "name": "createAuction",
      "outputs": [],
      "stateMutability": "nonpayable",
      "type": "function"
    },
    {
      "inputs": [
        {
          "internalType": "uint256",
          "name": "_tokenId",
          "type": "uint256"
        }
      ],
      "name": "endAuction",
      "outputs": [],
      "stateMutability": "nonpayable",
      "type": "function"
    },
    {
      "inputs": [],
      "name": "getActiveAuctionDetails",
      "outputs": [
        {
          "components": [
            {
              "internalType": "address",
              "name": "seller",
              "type": "address"
            },
            {
              "internalType": "address",
              "name": "highestBidder",
              "type": "address"
            },
            {
              "internalType": "uint256",
              "name": "highestBid",
              "type": "uint256"
            },
            {
              "internalType": "uint256",
              "name": "endTime",
              "type": "uint256"
            },
            {
              "internalType": "uint256",
              "name": "tokenId",
              "type": "uint256"
            },
            {
              "internalType": "bool",
              "name": "ended",
              "type": "bool"
            },
            {
              "internalType": "string",
              "name": "tokenURI",
              "type": "string"
            }
          ],
          "internalType": "struct NFTAuction.Auction[]",
          "name": "",
          "type": "tuple[]"
        }
      ],
      "stateMutability": "view",
      "type": "function"
    },
    {
      "inputs": [],
      "name": "nftContract",
      "outputs": [
        {
          "internalType": "contract IERC721",
          "name": "",
          "type": "address"
        }
      ],
      "stateMutability": "view",
      "type": "function"
    },
    {
      "inputs": [],
      "name": "owner",
      "outputs": [
        {
          "internalType": "address",
          "name": "",
          "type": "address"
        }
      ],
      "stateMutability": "view",
      "type": "function"
    },
    {
      "inputs": [],
      "name": "renounceOwnership",
      "outputs": [],
      "stateMutability": "nonpayable",
      "type": "function"
    },
    {
      "inputs": [
        {
          "internalType": "address",
          "name": "newOwner",
          "type": "address"
        }
      ],
      "name": "transferOwnership",
      "outputs": [],
      "stateMutability": "nonpayable",
      "type": "function"
    },
    {
      "inputs": [
        {
          "internalType": "address",
          "name": "",
          "type": "address"
        },
        {
          "internalType": "uint256",
          "name": "",
          "type": "uint256"
        }
      ],
      "name": "userActiveAuctions",
      "outputs": [
        {
          "internalType": "uint256",
          "name": "",
          "type": "uint256"
        }
      ],
      "stateMutability": "view",
      "type": "function"
    }
  ],
  "bytecode": "0x60806040523480156200001157600080fd5b50604051620026b8380380620026b88339818101604052810190620000379190620001d5565b620000576200004b6200009f60201b60201c565b620000a760201b60201c565b80600160006101000a81548173ffffffffffffffffffffffffffffffffffffffff021916908373ffffffffffffffffffffffffffffffffffffffff1602179055505062000207565b600033905090565b60008060009054906101000a900473ffffffffffffffffffffffffffffffffffffffff169050816000806101000a81548173ffffffffffffffffffffffffffffffffffffffff021916908373ffffffffffffffffffffffffffffffffffffffff1602179055508173ffffffffffffffffffffffffffffffffffffffff168173ffffffffffffffffffffffffffffffffffffffff167f8be0079c531659141344cd1fd0a4f28419497f9722a3daafe3b4186f6b6457e060405160405180910390a35050565b600080fd5b600073ffffffffffffffffffffffffffffffffffffffff82169050919050565b60006200019d8262000170565b9050919050565b620001af8162000190565b8114620001bb57600080fd5b50565b600081519050620001cf81620001a4565b92915050565b600060208284031215620001ee57620001ed6200016b565b5b6000620001fe84828501620001be565b91505092915050565b6124a180620002176000396000f3fe60806040526004361061009c5760003560e01c8063790d859611610064578063790d85961461016b5780638da5cb5b146101a8578063a990e7a5146101d3578063b9a2de3a14610210578063d56d229d14610239578063f2fde38b146102645761009c565b8063240c1708146100a1578063454a2ab3146100cc5780634736b359146100e8578063571a26a014610111578063715018a614610154575b600080fd5b3480156100ad57600080fd5b506100b661028d565b6040516100c39190611773565b60405180910390f35b6100e660048036038101906100e191906117d5565b6104e8565b005b3480156100f457600080fd5b5061010f600480360381019061010a9190611937565b6106f2565b005b34801561011d57600080fd5b50610138600480360381019061013391906117d5565b610b93565b60405161014b9796959493929190611a1d565b60405180910390f35b34801561016057600080fd5b50610169610caa565b005b34801561017757600080fd5b50610192600480360381019061018d91906117d5565b610cbe565b60405161019f9190611a93565b60405180910390f35b3480156101b457600080fd5b506101bd610ce2565b6040516101ca9190611aae565b60405180910390f35b3480156101df57600080fd5b506101fa60048036038101906101f59190611af5565b610d0b565b6040516102079190611a93565b60405180910390f35b34801561021c57600080fd5b50610237600480360381019061023291906117d5565b610d3c565b005b34801561024557600080fd5b5061024e6110dd565b60405161025b9190611b94565b60405180910390f35b34801561027057600080fd5b5061028b60048036038101906102869190611baf565b611103565b005b6060600060048054905067ffffffffffffffff8111156102b0576102af61180c565b5b6040519080825280602002602001820160405280156102e957816020015b6102d66114a5565b8152602001906001900390816102ce5790505b50905060005b6004805490508110156104e057600260006004838154811061031457610313611bdc565b5b906000526020600020015481526020019081526020016000206040518060e00160405290816000820160009054906101000a900473ffffffffffffffffffffffffffffffffffffffff1673ffffffffffffffffffffffffffffffffffffffff1673ffffffffffffffffffffffffffffffffffffffff1681526020016001820160009054906101000a900473ffffffffffffffffffffffffffffffffffffffff1673ffffffffffffffffffffffffffffffffffffffff1673ffffffffffffffffffffffffffffffffffffffff1681526020016002820154815260200160038201548152602001600482015481526020016005820160009054906101000a900460ff1615151515815260200160068201805461042d90611c3a565b80601f016020809104026020016040519081016040528092919081815260200182805461045990611c3a565b80156104a65780601f1061047b576101008083540402835291602001916104a6565b820191906000526020600020905b81548152906001019060200180831161048957829003601f168201915b5050505050815250508282815181106104c2576104c1611bdc565b5b602002602001018190525080806104d890611c9a565b9150506102ef565b508091505090565b600060026000838152602001908152602001600020905080600301544210610545576040517f08c379a000000000000000000000000000000000000000000000000000000000815260040161053c90611d2e565b60405180910390fd5b8060020154341161058b576040517f08c379a000000000000000000000000000000000000000000000000000000000815260040161058290611dc0565b60405180910390fd5b600073ffffffffffffffffffffffffffffffffffffffff168160010160009054906101000a900473ffffffffffffffffffffffffffffffffffffffff1673ffffffffffffffffffffffffffffffffffffffff1614610653578060010160009054906101000a900473ffffffffffffffffffffffffffffffffffffffff1673ffffffffffffffffffffffffffffffffffffffff166108fc82600201549081150290604051600060405180830381858888f19350505050158015610651573d6000803e3d6000fd5b505b338160010160006101000a81548173ffffffffffffffffffffffffffffffffffffffff021916908373ffffffffffffffffffffffffffffffffffffffff160217905550348160020181905550813373ffffffffffffffffffffffffffffffffffffffff167fdafc4a123c6bb3b49dd38a0cba299808581a0126a37248a5f1102d5e5fa06337346040516106e69190611a93565b60405180910390a35050565b600073ffffffffffffffffffffffffffffffffffffffff166002600085815260200190815260200160002060000160009054906101000a900473ffffffffffffffffffffffffffffffffffffffff1673ffffffffffffffffffffffffffffffffffffffff1614610797576040517f08c379a000000000000000000000000000000000000000000000000000000000815260040161078e90611e2c565b60405180910390fd5b3373ffffffffffffffffffffffffffffffffffffffff16600160009054906101000a900473ffffffffffffffffffffffffffffffffffffffff1673ffffffffffffffffffffffffffffffffffffffff16636352211e856040518263ffffffff1660e01b81526004016108099190611a93565b602060405180830381865afa158015610826573d6000803e3d6000fd5b505050506040513d601f19601f8201168201806040525081019061084a9190611e61565b73ffffffffffffffffffffffffffffffffffffffff16146108a0576040517f08c379a000000000000000000000000000000000000000000000000000000000815260040161089790611eda565b60405180910390fd5b600160009054906101000a900473ffffffffffffffffffffffffffffffffffffffff1673ffffffffffffffffffffffffffffffffffffffff166323b872dd3330866040518463ffffffff1660e01b81526004016108ff93929190611efa565b600060405180830381600087803b15801561091957600080fd5b505af115801561092d573d6000803e3d6000fd5b505050506040518060e001604052803373ffffffffffffffffffffffffffffffffffffffff168152602001600073ffffffffffffffffffffffffffffffffffffffff1681526020016000815260200183426109889190611f31565b8152602001848152602001600015158152602001828152506002600085815260200190815260200160002060008201518160000160006101000a81548173ffffffffffffffffffffffffffffffffffffffff021916908373ffffffffffffffffffffffffffffffffffffffff16021790555060208201518160010160006101000a81548173ffffffffffffffffffffffffffffffffffffffff021916908373ffffffffffffffffffffffffffffffffffffffff16021790555060408201518160020155606082015181600301556080820151816004015560a08201518160050160006101000a81548160ff02191690831515021790555060c0820151816006019081610a949190612107565b509050506004839080600181540180825580915050600190039060005260206000200160009091909190915055600360003373ffffffffffffffffffffffffffffffffffffffff1673ffffffffffffffffffffffffffffffffffffffff168152602001908152602001600020839080600181540180825580915050600190039060005260206000200160009091909190915055823373ffffffffffffffffffffffffffffffffffffffff167fa3d19677a52b6dff051e5813011905526090505e00fcea83c604776ad5ebfd68600260008781526020019081526020016000206003015484604051610b869291906121d9565b60405180910390a3505050565b60026020528060005260406000206000915090508060000160009054906101000a900473ffffffffffffffffffffffffffffffffffffffff16908060010160009054906101000a900473ffffffffffffffffffffffffffffffffffffffff16908060020154908060030154908060040154908060050160009054906101000a900460ff1690806006018054610c2790611c3a565b80601f0160208091040260200160405190810160405280929190818152602001828054610c5390611c3a565b8015610ca05780601f10610c7557610100808354040283529160200191610ca0565b820191906000526020600020905b815481529060010190602001808311610c8357829003601f168201915b5050505050905087565b610cb2611186565b610cbc6000611204565b565b60048181548110610cce57600080fd5b906000526020600020016000915090505481565b60008060009054906101000a900473ffffffffffffffffffffffffffffffffffffffff16905090565b60036020528160005260406000208181548110610d2757600080fd5b90600052602060002001600091509150505481565b60006002600083815260200190815260200160002090508060030154421015610d9a576040517f08c379a0000000000000000000000000000000000000000000000000000000008152600401610d9190612255565b60405180910390fd5b8060050160009054906101000a900460ff1615610dec576040517f08c379a0000000000000000000000000000000000000000000000000000000008152600401610de3906122c1565b60405180910390fd5b60018160050160006101000a81548160ff021916908315150217905550600073ffffffffffffffffffffffffffffffffffffffff168160010160009054906101000a900473ffffffffffffffffffffffffffffffffffffffff1673ffffffffffffffffffffffffffffffffffffffff1614610f8a57600160009054906101000a900473ffffffffffffffffffffffffffffffffffffffff1673ffffffffffffffffffffffffffffffffffffffff166323b872dd308360010160009054906101000a900473ffffffffffffffffffffffffffffffffffffffff16856040518463ffffffff1660e01b8152600401610ee493929190611efa565b600060405180830381600087803b158015610efe57600080fd5b505af1158015610f12573d6000803e3d6000fd5b505050508060000160009054906101000a900473ffffffffffffffffffffffffffffffffffffffff1673ffffffffffffffffffffffffffffffffffffffff166108fc82600201549081150290604051600060405180830381858888f19350505050158015610f84573d6000803e3d6000fd5b50611040565b600160009054906101000a900473ffffffffffffffffffffffffffffffffffffffff1673ffffffffffffffffffffffffffffffffffffffff166323b872dd308360000160009054906101000a900473ffffffffffffffffffffffffffffffffffffffff16856040518463ffffffff1660e01b815260040161100d93929190611efa565b600060405180830381600087803b15801561102757600080fd5b505af115801561103b573d6000803e3d6000fd5b505050505b611049826112c8565b6110778160000160009054906101000a900473ffffffffffffffffffffffffffffffffffffffff1683611393565b817fc358e8e3f205b5e7453abd5cbac388ca4552b887b69001bc972b88610c7490358260010160009054906101000a900473ffffffffffffffffffffffffffffffffffffffff1683600201546040516110d19291906122e1565b60405180910390a25050565b600160009054906101000a900473ffffffffffffffffffffffffffffffffffffffff1681565b61110b611186565b600073ffffffffffffffffffffffffffffffffffffffff168173ffffffffffffffffffffffffffffffffffffffff160361117a576040517f08c379a00000000000000000000000000000000000000000000000000000000081526004016111719061237c565b60405180910390fd5b61118381611204565b50565b61118e61149d565b73ffffffffffffffffffffffffffffffffffffffff166111ac610ce2565b73ffffffffffffffffffffffffffffffffffffffff1614611202576040517f08c379a00000000000000000000000000000000000000000000000000000000081526004016111f9906123e8565b60405180910390fd5b565b60008060009054906101000a900473ffffffffffffffffffffffffffffffffffffffff169050816000806101000a81548173ffffffffffffffffffffffffffffffffffffffff021916908373ffffffffffffffffffffffffffffffffffffffff1602179055508173ffffffffffffffffffffffffffffffffffffffff168173ffffffffffffffffffffffffffffffffffffffff167f8be0079c531659141344cd1fd0a4f28419497f9722a3daafe3b4186f6b6457e060405160405180910390a35050565b60005b60048054905081101561138f5781600482815481106112ed576112ec611bdc565b5b90600052602060002001540361137c57600460016004805490506113119190612408565b8154811061132257611321611bdc565b5b90600052602060002001546004828154811061134157611340611bdc565b5b906000526020600020018190555060048054806113615761136061243c565b5b6001900381819060005260206000200160009055905561138f565b808061138790611c9a565b9150506112cb565b5050565b6000600360008473ffffffffffffffffffffffffffffffffffffffff1673ffffffffffffffffffffffffffffffffffffffff168152602001908152602001600020905060005b818054905081101561149757828282815481106113f9576113f8611bdc565b5b90600052602060002001540361148457816001838054905061141b9190612408565b8154811061142c5761142b611bdc565b5b906000526020600020015482828154811061144a57611449611bdc565b5b9060005260206000200181905550818054806114695761146861243c565b5b60019003818190600052602060002001600090559055611497565b808061148f90611c9a565b9150506113d9565b50505050565b600033905090565b6040518060e00160405280600073ffffffffffffffffffffffffffffffffffffffff168152602001600073ffffffffffffffffffffffffffffffffffffffff168152602001600081526020016000815260200160008152602001600015158152602001606081525090565b600081519050919050565b600082825260208201905092915050565b6000819050602082019050919050565b600073ffffffffffffffffffffffffffffffffffffffff82169050919050565b60006115678261153c565b9050919050565b6115778161155c565b82525050565b6000819050919050565b6115908161157d565b82525050565b60008115159050919050565b6115ab81611596565b82525050565b600081519050919050565b600082825260208201905092915050565b60005b838110156115eb5780820151818401526020810190506115d0565b60008484015250505050565b6000601f19601f8301169050919050565b6000611613826115b1565b61161d81856115bc565b935061162d8185602086016115cd565b611636816115f7565b840191505092915050565b600060e083016000830151611659600086018261156e565b50602083015161166c602086018261156e565b50604083015161167f6040860182611587565b5060608301516116926060860182611587565b5060808301516116a56080860182611587565b5060a08301516116b860a08601826115a2565b5060c083015184820360c08601526116d08282611608565b9150508091505092915050565b60006116e98383611641565b905092915050565b6000602082019050919050565b600061170982611510565b611713818561151b565b9350836020820285016117258561152c565b8060005b85811015611761578484038952815161174285826116dd565b945061174d836116f1565b925060208a01995050600181019050611729565b50829750879550505050505092915050565b6000602082019050818103600083015261178d81846116fe565b905092915050565b6000604051905090565b600080fd5b600080fd5b6117b28161157d565b81146117bd57600080fd5b50565b6000813590506117cf816117a9565b92915050565b6000602082840312156117eb576117ea61179f565b5b60006117f9848285016117c0565b91505092915050565b600080fd5b600080fd5b7f4e487b7100000000000000000000000000000000000000000000000000000000600052604160045260246000fd5b611844826115f7565b810181811067ffffffffffffffff821117156118635761186261180c565b5b80604052505050565b6000611876611795565b9050611882828261183b565b919050565b600067ffffffffffffffff8211156118a2576118a161180c565b5b6118ab826115f7565b9050602081019050919050565b82818337600083830152505050565b60006118da6118d584611887565b61186c565b9050828152602081018484840111156118f6576118f5611807565b5b6119018482856118b8565b509392505050565b600082601f83011261191e5761191d611802565b5b813561192e8482602086016118c7565b91505092915050565b6000806000606084860312156119505761194f61179f565b5b600061195e868287016117c0565b935050602061196f868287016117c0565b925050604084013567ffffffffffffffff8111156119905761198f6117a4565b5b61199c86828701611909565b9150509250925092565b6119af8161155c565b82525050565b6119be8161157d565b82525050565b6119cd81611596565b82525050565b600082825260208201905092915050565b60006119ef826115b1565b6119f981856119d3565b9350611a098185602086016115cd565b611a12816115f7565b840191505092915050565b600060e082019050611a32600083018a6119a6565b611a3f60208301896119a6565b611a4c60408301886119b5565b611a5960608301876119b5565b611a6660808301866119b5565b611a7360a08301856119c4565b81810360c0830152611a8581846119e4565b905098975050505050505050565b6000602082019050611aa860008301846119b5565b92915050565b6000602082019050611ac360008301846119a6565b92915050565b611ad28161155c565b8114611add57600080fd5b50565b600081359050611aef81611ac9565b92915050565b60008060408385031215611b0c57611b0b61179f565b5b6000611b1a85828601611ae0565b9250506020611b2b858286016117c0565b9150509250929050565b6000819050919050565b6000611b5a611b55611b508461153c565b611b35565b61153c565b9050919050565b6000611b6c82611b3f565b9050919050565b6000611b7e82611b61565b9050919050565b611b8e81611b73565b82525050565b6000602082019050611ba96000830184611b85565b92915050565b600060208284031215611bc557611bc461179f565b5b6000611bd384828501611ae0565b91505092915050565b7f4e487b7100000000000000000000000000000000000000000000000000000000600052603260045260246000fd5b7f4e487b7100000000000000000000000000000000000000000000000000000000600052602260045260246000fd5b60006002820490506001821680611c5257607f821691505b602082108103611c6557611c64611c0b565b5b50919050565b7f4e487b7100000000000000000000000000000000000000000000000000000000600052601160045260246000fd5b6000611ca58261157d565b91507fffffffffffffffffffffffffffffffffffffffffffffffffffffffffffffffff8203611cd757611cd6611c6b565b5b600182019050919050565b7f4c6120737562617374612068612066696e616c697a61646f0000000000000000600082015250565b6000611d186018836119d3565b9150611d2382611ce2565b602082019050919050565b60006020820190508181036000830152611d4781611d0b565b9050919050565b7f4c61206f6665727461206465626520736572206d61796f722061206c6120616360008201527f7475616c00000000000000000000000000000000000000000000000000000000602082015250565b6000611daa6024836119d3565b9150611db582611d4e565b604082019050919050565b60006020820190508181036000830152611dd981611d9d565b9050919050565b7f456c204e4654207961206573746120656e207375626173746100000000000000600082015250565b6000611e166019836119d3565b9150611e2182611de0565b602082019050919050565b60006020820190508181036000830152611e4581611e09565b9050919050565b600081519050611e5b81611ac9565b92915050565b600060208284031215611e7757611e7661179f565b5b6000611e8584828501611e4c565b91505092915050565b7f4e6f206572657320656c2070726f706965746172696f2064656c204e46540000600082015250565b6000611ec4601e836119d3565b9150611ecf82611e8e565b602082019050919050565b60006020820190508181036000830152611ef381611eb7565b9050919050565b6000606082019050611f0f60008301866119a6565b611f1c60208301856119a6565b611f2960408301846119b5565b949350505050565b6000611f3c8261157d565b9150611f478361157d565b9250828201905080821115611f5f57611f5e611c6b565b5b92915050565b60008190508160005260206000209050919050565b60006020601f8301049050919050565b600082821b905092915050565b600060088302611fc77fffffffffffffffffffffffffffffffffffffffffffffffffffffffffffffffff82611f8a565b611fd18683611f8a565b95508019841693508086168417925050509392505050565b6000612004611fff611ffa8461157d565b611b35565b61157d565b9050919050565b6000819050919050565b61201e83611fe9565b61203261202a8261200b565b848454611f97565b825550505050565b600090565b61204761203a565b612052818484612015565b505050565b5b818110156120765761206b60008261203f565b600181019050612058565b5050565b601f8211156120bb5761208c81611f65565b61209584611f7a565b810160208510156120a4578190505b6120b86120b085611f7a565b830182612057565b50505b505050565b600082821c905092915050565b60006120de600019846008026120c0565b1980831691505092915050565b60006120f783836120cd565b9150826002028217905092915050565b612110826115b1565b67ffffffffffffffff8111156121295761212861180c565b5b6121338254611c3a565b61213e82828561207a565b600060209050601f831160018114612171576000841561215f578287015190505b61216985826120eb565b8655506121d1565b601f19841661217f86611f65565b60005b828110156121a757848901518255600182019150602085019450602081019050612182565b868310156121c457848901516121c0601f8916826120cd565b8355505b6001600288020188555050505b505050505050565b60006040820190506121ee60008301856119b5565b818103602083015261220081846119e4565b90509392505050565b7f4c6120737562617374612061756e206e6f206861207465726d696e61646f0000600082015250565b600061223f601e836119d3565b915061224a82612209565b602082019050919050565b6000602082019050818103600083015261226e81612232565b9050919050565b7f4c6120737562617374612079612068612066696e616c697a61646f0000000000600082015250565b60006122ab601b836119d3565b91506122b682612275565b602082019050919050565b600060208201905081810360008301526122da8161229e565b9050919050565b60006040820190506122f660008301856119a6565b61230360208301846119b5565b9392505050565b7f4f776e61626c653a206e6577206f776e657220697320746865207a65726f206160008201527f6464726573730000000000000000000000000000000000000000000000000000602082015250565b60006123666026836119d3565b91506123718261230a565b604082019050919050565b6000602082019050818103600083015261239581612359565b9050919050565b7f4f776e61626c653a2063616c6c6572206973206e6f7420746865206f776e6572600082015250565b60006123d26020836119d3565b91506123dd8261239c565b602082019050919050565b60006020820190508181036000830152612401816123c5565b9050919050565b60006124138261157d565b915061241e8361157d565b925082820390508181111561243657612435611c6b565b5b92915050565b7f4e487b7100000000000000000000000000000000000000000000000000000000600052603160045260246000fdfea2646970667358221220178cd003f0f46394ae4bbbe02fa3ae916d86a73022b34e48418ba5917c04d18e64736f6c63430008110033",
  "linkReferences": {},
  "deployedLinkReferences": {}
}